{
    "abi": [
        {
            "type": "constructor",
            "inputs": [],
            "stateMutability": "nonpayable"
        },
        {
            "type": "function",
            "name": "BURNER_ROLE",
            "inputs": [],
            "outputs": [
                {
                    "name": "",
                    "type": "bytes32",
                    "internalType": "bytes32"
                }
            ],
            "stateMutability": "view"
        },
        {
            "type": "function",
            "name": "DEFAULT_ADMIN_ROLE",
            "inputs": [],
            "outputs": [
                {
                    "name": "",
                    "type": "bytes32",
                    "internalType": "bytes32"
                }
            ],
            "stateMutability": "view"
        },
        {
            "type": "function",
            "name": "MINTER_ROLE",
            "inputs": [],
            "outputs": [
                {
                    "name": "",
                    "type": "bytes32",
                    "internalType": "bytes32"
                }
            ],
            "stateMutability": "view"
        },
        {
            "type": "function",
            "name": "approve",
            "inputs": [
                {
                    "name": "to",
                    "type": "address",
                    "internalType": "address"
                },
                {
                    "name": "tokenId",
                    "type": "uint256",
                    "internalType": "uint256"
                }
            ],
            "outputs": [],
            "stateMutability": "nonpayable"
        },
        {
            "type": "function",
            "name": "balanceOf",
            "inputs": [
                {
                    "name": "owner",
                    "type": "address",
                    "internalType": "address"
                }
            ],
            "outputs": [
                {
                    "name": "",
                    "type": "uint256",
                    "internalType": "uint256"
                }
            ],
            "stateMutability": "view"
        },
        {
            "type": "function",
            "name": "burn",
            "inputs": [
                {
                    "name": "tokenId",
                    "type": "uint256",
                    "internalType": "uint256"
                },
                {
                    "name": "reason",
                    "type": "string",
                    "internalType": "string"
                }
            ],
            "outputs": [],
            "stateMutability": "nonpayable"
        },
        {
            "type": "function",
            "name": "getApproved",
            "inputs": [
                {
                    "name": "tokenId",
                    "type": "uint256",
                    "internalType": "uint256"
                }
            ],
            "outputs": [
                {
                    "name": "",
                    "type": "address",
                    "internalType": "address"
                }
            ],
            "stateMutability": "view"
        },
        {
            "type": "function",
            "name": "getInterestRateByTier",
            "inputs": [
                {
                    "name": "tier",
                    "type": "uint8",
                    "internalType": "enum InvoiceNFT.RiskTier"
                }
            ],
            "outputs": [
                {
                    "name": "",
                    "type": "uint256",
                    "internalType": "uint256"
                }
            ],
            "stateMutability": "pure"
        },
        {
            "type": "function",
            "name": "getInvoiceData",
            "inputs": [
                {
                    "name": "tokenId",
                    "type": "uint256",
                    "internalType": "uint256"
                }
            ],
            "outputs": [
                {
                    "name": "",
                    "type": "tuple",
                    "internalType": "struct InvoiceNFT.InvoiceData",
                    "components": [
                        {
                            "name": "invoiceHash",
                            "type": "bytes32",
                            "internalType": "bytes32"
                        },
                        {
                            "name": "debtorConfirmationHash",
                            "type": "bytes32",
                            "internalType": "bytes32"
                        },
                        {
                            "name": "dueDate",
                            "type": "uint256",
                            "internalType": "uint256"
                        },
                        {
                            "name": "amount",
                            "type": "uint256",
                            "internalType": "uint256"
                        },
                        {
                            "name": "riskTier",
                            "type": "uint8",
                            "internalType": "enum InvoiceNFT.RiskTier"
                        },
                        {
                            "name": "kycProofHash",
                            "type": "bytes32",
                            "internalType": "bytes32"
                        },
                        {
                            "name": "osintScore",
                            "type": "uint256",
                            "internalType": "uint256"
                        },
                        {
                            "name": "creditor",
                            "type": "address",
                            "internalType": "address"
                        },
                        {
                            "name": "createdAt",
                            "type": "uint256",
                            "internalType": "uint256"
                        },
                        {
                            "name": "isActive",
                            "type": "bool",
                            "internalType": "bool"
                        }
                    ]
                }
            ],
            "stateMutability": "view"
        },
        {
            "type": "function",
            "name": "getLTVByTier",
            "inputs": [
                {
                    "name": "tier",
                    "type": "uint8",
                    "internalType": "enum InvoiceNFT.RiskTier"
                }
            ],
            "outputs": [
                {
                    "name": "",
                    "type": "uint256",
                    "internalType": "uint256"
                }
            ],
            "stateMutability": "pure"
        },
        {
            "type": "function",
            "name": "getRoleAdmin",
            "inputs": [
                {
                    "name": "role",
                    "type": "bytes32",
                    "internalType": "bytes32"
                }
            ],
            "outputs": [
                {
                    "name": "",
                    "type": "bytes32",
                    "internalType": "bytes32"
                }
            ],
            "stateMutability": "view"
        },
        {
            "type": "function",
            "name": "getTokenByInvoiceHash",
            "inputs": [
                {
                    "name": "invoiceHash",
                    "type": "bytes32",
                    "internalType": "bytes32"
                }
            ],
            "outputs": [
                {
                    "name": "",
                    "type": "uint256",
                    "internalType": "uint256"
                }
            ],
            "stateMutability": "view"
        },
        {
            "type": "function",
            "name": "grantRole",
            "inputs": [
                {
                    "name": "role",
                    "type": "bytes32",
                    "internalType": "bytes32"
                },
                {
                    "name": "account",
                    "type": "address",
                    "internalType": "address"
                }
            ],
            "outputs": [],
            "stateMutability": "nonpayable"
        },
        {
            "type": "function",
            "name": "hasRole",
            "inputs": [
                {
                    "name": "role",
                    "type": "bytes32",
                    "internalType": "bytes32"
                },
                {
                    "name": "account",
                    "type": "address",
                    "internalType": "address"
                }
            ],
            "outputs": [
                {
                    "name": "",
                    "type": "bool",
                    "internalType": "bool"
                }
            ],
            "stateMutability": "view"
        },
        {
            "type": "function",
            "name": "isApprovedForAll",
            "inputs": [
                {
                    "name": "owner",
                    "type": "address",
                    "internalType": "address"
                },
                {
                    "name": "operator",
                    "type": "address",
                    "internalType": "address"
                }
            ],
            "outputs": [
                {
                    "name": "",
                    "type": "bool",
                    "internalType": "bool"
                }
            ],
            "stateMutability": "view"
        },
        {
            "type": "function",
            "name": "isInvoiceActive",
            "inputs": [
                {
                    "name": "tokenId",
                    "type": "uint256",
                    "internalType": "uint256"
                }
            ],
            "outputs": [
                {
                    "name": "",
                    "type": "bool",
                    "internalType": "bool"
                }
            ],
            "stateMutability": "view"
        },
        {
            "type": "function",
            "name": "mint",
            "inputs": [
                {
                    "name": "to",
                    "type": "address",
                    "internalType": "address"
                },
                {
                    "name": "invoiceHash",
                    "type": "bytes32",
                    "internalType": "bytes32"
                },
                {
                    "name": "dueDate",
                    "type": "uint256",
                    "internalType": "uint256"
                },
                {
                    "name": "amount",
                    "type": "uint256",
                    "internalType": "uint256"
                },
                {
                    "name": "riskTier",
                    "type": "uint8",
                    "internalType": "enum InvoiceNFT.RiskTier"
                },
                {
                    "name": "kycProofHash",
                    "type": "bytes32",
                    "internalType": "bytes32"
                },
                {
                    "name": "osintScore",
                    "type": "uint256",
                    "internalType": "uint256"
                }
            ],
            "outputs": [
                {
                    "name": "",
                    "type": "uint256",
                    "internalType": "uint256"
                }
            ],
            "stateMutability": "nonpayable"
        },
        {
            "type": "function",
            "name": "name",
            "inputs": [],
            "outputs": [
                {
                    "name": "",
                    "type": "string",
                    "internalType": "string"
                }
            ],
            "stateMutability": "view"
        },
        {
            "type": "function",
            "name": "ownerOf",
            "inputs": [
                {
                    "name": "tokenId",
                    "type": "uint256",
                    "internalType": "uint256"
                }
            ],
            "outputs": [
                {
                    "name": "",
                    "type": "address",
                    "internalType": "address"
                }
            ],
            "stateMutability": "view"
        },
        {
            "type": "function",
            "name": "renounceRole",
            "inputs": [
                {
                    "name": "role",
                    "type": "bytes32",
                    "internalType": "bytes32"
                },
                {
                    "name": "callerConfirmation",
                    "type": "address",
                    "internalType": "address"
                }
            ],
            "outputs": [],
            "stateMutability": "nonpayable"
        },
        {
            "type": "function",
            "name": "revokeRole",
            "inputs": [
                {
                    "name": "role",
                    "type": "bytes32",
                    "internalType": "bytes32"
                },
                {
                    "name": "account",
                    "type": "address",
                    "internalType": "address"
                }
            ],
            "outputs": [],
            "stateMutability": "nonpayable"
        },
        {
            "type": "function",
            "name": "safeTransferFrom",
            "inputs": [
                {
                    "name": "from",
                    "type": "address",
                    "internalType": "address"
                },
                {
                    "name": "to",
                    "type": "address",
                    "internalType": "address"
                },
                {
                    "name": "tokenId",
                    "type": "uint256",
                    "internalType": "uint256"
                }
            ],
            "outputs": [],
            "stateMutability": "nonpayable"
        },
        {
            "type": "function",
            "name": "safeTransferFrom",
            "inputs": [
                {
                    "name": "from",
                    "type": "address",
                    "internalType": "address"
                },
                {
                    "name": "to",
                    "type": "address",
                    "internalType": "address"
                },
                {
                    "name": "tokenId",
                    "type": "uint256",
                    "internalType": "uint256"
                },
                {
                    "name": "data",
                    "type": "bytes",
                    "internalType": "bytes"
                }
            ],
            "outputs": [],
            "stateMutability": "nonpayable"
        },
        {
            "type": "function",
            "name": "setApprovalForAll",
            "inputs": [
                {
                    "name": "operator",
                    "type": "address",
                    "internalType": "address"
                },
                {
                    "name": "approved",
                    "type": "bool",
                    "internalType": "bool"
                }
            ],
            "outputs": [],
            "stateMutability": "nonpayable"
        },
        {
            "type": "function",
            "name": "setDebtorConfirmation",
            "inputs": [
                {
                    "name": "tokenId",
                    "type": "uint256",
                    "internalType": "uint256"
                },
                {
                    "name": "debtorConfirmationHash",
                    "type": "bytes32",
                    "internalType": "bytes32"
                }
            ],
            "outputs": [],
            "stateMutability": "nonpayable"
        },
        {
            "type": "function",
            "name": "supportsInterface",
            "inputs": [
                {
                    "name": "interfaceId",
                    "type": "bytes4",
                    "internalType": "bytes4"
                }
            ],
            "outputs": [
                {
                    "name": "",
                    "type": "bool",
                    "internalType": "bool"
                }
            ],
            "stateMutability": "view"
        },
        {
            "type": "function",
            "name": "symbol",
            "inputs": [],
            "outputs": [
                {
                    "name": "",
                    "type": "string",
                    "internalType": "string"
                }
            ],
            "stateMutability": "view"
        },
        {
            "type": "function",
            "name": "tokenByIndex",
            "inputs": [
                {
                    "name": "index",
                    "type": "uint256",
                    "internalType": "uint256"
                }
            ],
            "outputs": [
                {
                    "name": "",
                    "type": "uint256",
                    "internalType": "uint256"
                }
            ],
            "stateMutability": "view"
        },
        {
            "type": "function",
            "name": "tokenOfOwnerByIndex",
            "inputs": [
                {
                    "name": "owner",
                    "type": "address",
                    "internalType": "address"
                },
                {
                    "name": "index",
                    "type": "uint256",
                    "internalType": "uint256"
                }
            ],
            "outputs": [
                {
                    "name": "",
                    "type": "uint256",
                    "internalType": "uint256"
                }
            ],
            "stateMutability": "view"
        },
        {
            "type": "function",
            "name": "tokenURI",
            "inputs": [
                {
                    "name": "tokenId",
                    "type": "uint256",
                    "internalType": "uint256"
                }
            ],
            "outputs": [
                {
                    "name": "",
                    "type": "string",
                    "internalType": "string"
                }
            ],
            "stateMutability": "view"
        },
        {
            "type": "function",
            "name": "totalSupply",
            "inputs": [],
            "outputs": [
                {
                    "name": "",
                    "type": "uint256",
                    "internalType": "uint256"
                }
            ],
            "stateMutability": "view"
        },
        {
            "type": "function",
            "name": "transferFrom",
            "inputs": [
                {
                    "name": "from",
                    "type": "address",
                    "internalType": "address"
                },
                {
                    "name": "to",
                    "type": "address",
                    "internalType": "address"
                },
                {
                    "name": "tokenId",
                    "type": "uint256",
                    "internalType": "uint256"
                }
            ],
            "outputs": [],
            "stateMutability": "nonpayable"
        },
        {
            "type": "event",
            "name": "Approval",
            "inputs": [
                {
                    "name": "owner",
                    "type": "address",
                    "indexed": true,
                    "internalType": "address"
                },
                {
                    "name": "approved",
                    "type": "address",
                    "indexed": true,
                    "internalType": "address"
                },
                {
                    "name": "tokenId",
                    "type": "uint256",
                    "indexed": true,
                    "internalType": "uint256"
                }
            ],
            "anonymous": false
        },
        {
            "type": "event",
            "name": "ApprovalForAll",
            "inputs": [
                {
                    "name": "owner",
                    "type": "address",
                    "indexed": true,
                    "internalType": "address"
                },
                {
                    "name": "operator",
                    "type": "address",
                    "indexed": true,
                    "internalType": "address"
                },
                {
                    "name": "approved",
                    "type": "bool",
                    "indexed": false,
                    "internalType": "bool"
                }
            ],
            "anonymous": false
        },
        {
            "type": "event",
            "name": "InvoiceBurned",
            "inputs": [
                {
                    "name": "tokenId",
                    "type": "uint256",
                    "indexed": true,
                    "internalType": "uint256"
                },
                {
                    "name": "burner",
                    "type": "address",
                    "indexed": true,
                    "internalType": "address"
                },
                {
                    "name": "reason",
                    "type": "string",
                    "indexed": false,
                    "internalType": "string"
                }
            ],
            "anonymous": false
        },
        {
            "type": "event",
            "name": "InvoiceDataUpdated",
            "inputs": [
                {
                    "name": "tokenId",
                    "type": "uint256",
                    "indexed": true,
                    "internalType": "uint256"
                },
                {
                    "name": "debtorConfirmationHash",
                    "type": "bytes32",
                    "indexed": false,
                    "internalType": "bytes32"
                }
            ],
            "anonymous": false
        },
        {
            "type": "event",
            "name": "InvoiceMinted",
            "inputs": [
                {
                    "name": "tokenId",
                    "type": "uint256",
                    "indexed": true,
                    "internalType": "uint256"
                },
                {
                    "name": "creditor",
                    "type": "address",
                    "indexed": true,
                    "internalType": "address"
                },
                {
                    "name": "invoiceHash",
                    "type": "bytes32",
                    "indexed": false,
                    "internalType": "bytes32"
                },
                {
                    "name": "amount",
                    "type": "uint256",
                    "indexed": false,
                    "internalType": "uint256"
                },
                {
                    "name": "dueDate",
                    "type": "uint256",
                    "indexed": false,
                    "internalType": "uint256"
                },
                {
                    "name": "riskTier",
                    "type": "uint8",
                    "indexed": false,
                    "internalType": "enum InvoiceNFT.RiskTier"
                }
            ],
            "anonymous": false
        },
        {
            "type": "event",
            "name": "RoleAdminChanged",
            "inputs": [
                {
                    "name": "role",
                    "type": "bytes32",
                    "indexed": true,
                    "internalType": "bytes32"
                },
                {
                    "name": "previousAdminRole",
                    "type": "bytes32",
                    "indexed": true,
                    "internalType": "bytes32"
                },
                {
                    "name": "newAdminRole",
                    "type": "bytes32",
                    "indexed": true,
                    "internalType": "bytes32"
                }
            ],
            "anonymous": false
        },
        {
            "type": "event",
            "name": "RoleGranted",
            "inputs": [
                {
                    "name": "role",
                    "type": "bytes32",
                    "indexed": true,
                    "internalType": "bytes32"
                },
                {
                    "name": "account",
                    "type": "address",
                    "indexed": true,
                    "internalType": "address"
                },
                {
                    "name": "sender",
                    "type": "address",
                    "indexed": true,
                    "internalType": "address"
                }
            ],
            "anonymous": false
        },
        {
            "type": "event",
            "name": "RoleRevoked",
            "inputs": [
                {
                    "name": "role",
                    "type": "bytes32",
                    "indexed": true,
                    "internalType": "bytes32"
                },
                {
                    "name": "account",
                    "type": "address",
                    "indexed": true,
                    "internalType": "address"
                },
                {
                    "name": "sender",
                    "type": "address",
                    "indexed": true,
                    "internalType": "address"
                }
            ],
            "anonymous": false
        },
        {
            "type": "event",
            "name": "Transfer",
            "inputs": [
                {
                    "name": "from",
                    "type": "address",
                    "indexed": true,
                    "internalType": "address"
                },
                {
                    "name": "to",
                    "type": "address",
                    "indexed": true,
                    "internalType": "address"
                },
                {
                    "name": "tokenId",
                    "type": "uint256",
                    "indexed": true,
                    "internalType": "uint256"
                }
            ],
            "anonymous": false
        },
        {
            "type": "error",
            "name": "AccessControlBadConfirmation",
            "inputs": []
        },
        {
            "type": "error",
            "name": "AccessControlUnauthorizedAccount",
            "inputs": [
                {
                    "name": "account",
                    "type": "address",
                    "internalType": "address"
                },
                {
                    "name": "neededRole",
                    "type": "bytes32",
                    "internalType": "bytes32"
                }
            ]
        },
        {
            "type": "error",
            "name": "ERC721EnumerableForbiddenBatchMint",
            "inputs": []
        },
        {
            "type": "error",
            "name": "ERC721IncorrectOwner",
            "inputs": [
                {
                    "name": "sender",
                    "type": "address",
                    "internalType": "address"
                },
                {
                    "name": "tokenId",
                    "type": "uint256",
                    "internalType": "uint256"
                },
                {
                    "name": "owner",
                    "type": "address",
                    "internalType": "address"
                }
            ]
        },
        {
            "type": "error",
            "name": "ERC721InsufficientApproval",
            "inputs": [
                {
                    "name": "operator",
                    "type": "address",
                    "internalType": "address"
                },
                {
                    "name": "tokenId",
                    "type": "uint256",
                    "internalType": "uint256"
                }
            ]
        },
        {
            "type": "error",
            "name": "ERC721InvalidApprover",
            "inputs": [
                {
                    "name": "approver",
                    "type": "address",
                    "internalType": "address"
                }
            ]
        },
        {
            "type": "error",
            "name": "ERC721InvalidOperator",
            "inputs": [
                {
                    "name": "operator",
                    "type": "address",
                    "internalType": "address"
                }
            ]
        },
        {
            "type": "error",
            "name": "ERC721InvalidOwner",
            "inputs": [
                {
                    "name": "owner",
                    "type": "address",
                    "internalType": "address"
                }
            ]
        },
        {
            "type": "error",
            "name": "ERC721InvalidReceiver",
            "inputs": [
                {
                    "name": "receiver",
                    "type": "address",
                    "internalType": "address"
                }
            ]
        },
        {
            "type": "error",
            "name": "ERC721InvalidSender",
            "inputs": [
                {
                    "name": "sender",
                    "type": "address",
                    "internalType": "address"
                }
            ]
        },
        {
            "type": "error",
            "name": "ERC721NonexistentToken",
            "inputs": [
                {
                    "name": "tokenId",
                    "type": "uint256",
                    "internalType": "uint256"
                }
            ]
        },
        {
            "type": "error",
            "name": "ERC721OutOfBoundsIndex",
            "inputs": [
                {
                    "name": "owner",
                    "type": "address",
                    "internalType": "address"
                },
                {
                    "name": "index",
                    "type": "uint256",
                    "internalType": "uint256"
                }
            ]
        },
        {
            "type": "error",
            "name": "ReentrancyGuardReentrantCall",
            "inputs": []
        }
    ],
    "bytecode": {
        "object": "0x608060405234801562000010575f80fd5b50604051806040016040528060128152602001714d616e746c65466c6f7720496e766f69636560701b8152506040518060400160405280600581526020016426a324a72b60d91b815250815f90816200006a91906200023e565b5060016200007982826200023e565b50506001600b55506200008d5f33620000ee565b50620000ba7f9f2df0fed2c77648de5860a4cc508cd0818c85b8b8a1ab4ceeef8d981c8956a633620000ee565b50620000e77f3c11d16cbaffd01df69ce1c404f6340ee057498f5f00246190ea54220576a84833620000ee565b5062000306565b5f828152600a602090815260408083206001600160a01b038516845290915281205460ff1662000195575f838152600a602090815260408083206001600160a01b03861684529091529020805460ff191660011790556200014c3390565b6001600160a01b0316826001600160a01b0316847f2f8788117e7eff1d82e926ec794901d17c78024a50270940304540a733656f0d60405160405180910390a450600162000198565b505f5b92915050565b634e487b7160e01b5f52604160045260245ffd5b600181811c90821680620001c757607f821691505b602082108103620001e657634e487b7160e01b5f52602260045260245ffd5b50919050565b601f82111562000239575f81815260208120601f850160051c81016020861015620002145750805b601f850160051c820191505b81811015620002355782815560010162000220565b5050505b505050565b81516001600160401b038111156200025a576200025a6200019e565b62000272816200026b8454620001b2565b84620001ec565b602080601f831160018114620002a8575f8415620002905750858301515b5f19600386901b1c1916600185901b17855562000235565b5f85815260208120601f198616915b82811015620002d857888601518255948401946001909101908401620002b7565b5085821015620002f657878501515f19600388901b60f8161c191681555b5050505050600190811b01905550565b6122bb80620003145f395ff3fe608060405234801561000f575f80fd5b50600436106101e7575f3560e01c80635354a0e211610109578063a22cb4651161009e578063d53913931161006e578063d53913931461045a578063d547741f14610481578063e985e9c514610494578063fde3c8c5146104a7575f80fd5b8063a22cb465146103fc578063b2e3dff31461040f578063b88d4fde14610434578063c87b56dd14610447575f80fd5b80638506276f116100d95780638506276f146103c757806391d14854146103da57806395d89b41146103ed578063a217fddf146103f5575f80fd5b80635354a0e21461037b5780636352211e1461038e57806370a08231146103a15780637641e6f3146103b4575f80fd5b8063248a9ca31161017f57806336568abe1161014f57806336568abe1461032f57806342842e0e1461034257806347590a73146103555780634f6ccce714610368575f80fd5b8063248a9ca3146102c0578063282c51f3146102e25780632f2ff15d146103095780632f745c591461031c575f80fd5b806309a2283a116101ba57806309a2283a1461026857806318160ddd146102885780631a7b52821461029a57806323b872dd146102ad575f80fd5b806301ffc9a7146101eb57806306fdde0314610213578063081812fc14610228578063095ea7b314610253575b5f80fd5b6101fe6101f9366004611c67565b6104c6565b60405190151581526020015b60405180910390f35b61021b6104d6565b60405161020a9190611ccf565b61023b610236366004611ce1565b610565565b6040516001600160a01b03909116815260200161020a565b610266610261366004611d13565b61058c565b005b61027b610276366004611ce1565b61059b565b60405161020a9190611d6f565b6008545b60405190815260200161020a565b6102666102a8366004611dfa565b610707565b6102666102bb366004611e1a565b610810565b61028c6102ce366004611ce1565b5f908152600a602052604090206001015490565b61028c7f3c11d16cbaffd01df69ce1c404f6340ee057498f5f00246190ea54220576a84881565b610266610317366004611e53565b610899565b61028c61032a366004611d13565b6108bd565b61026661033d366004611e53565b610920565b610266610350366004611e1a565b610958565b61028c610363366004611e8b565b610972565b61028c610376366004611ce1565b6109dc565b61028c610389366004611e8b565b610a31565b61023b61039c366004611ce1565b610a97565b61028c6103af366004611ea4565b610aa1565b6102666103c2366004611ebd565b610ae6565b61028c6103d5366004611f32565b610c1f565b6101fe6103e8366004611e53565b610fde565b61021b611008565b61028c5f81565b61026661040a366004611f90565b611017565b6101fe61041d366004611ce1565b5f908152600d602052604090206009015460ff1690565b610266610442366004611fdd565b611022565b61021b610455366004611ce1565b611039565b61028c7f9f2df0fed2c77648de5860a4cc508cd0818c85b8b8a1ab4ceeef8d981c8956a681565b61026661048f366004611e53565b6110aa565b6101fe6104a23660046120b2565b6110ce565b61028c6104b5366004611ce1565b5f908152600e602052604090205490565b5f6104d0826110fb565b92915050565b60605f80546104e4906120da565b80601f0160208091040260200160405190810160405280929190818152602001828054610510906120da565b801561055b5780601f106105325761010080835404028352916020019161055b565b820191905f5260205f20905b81548152906001019060200180831161053e57829003601f168201915b5050505050905090565b5f61056f8261111f565b505f828152600460205260409020546001600160a01b03166104d0565b610597828233611157565b5050565b60408051610140810182525f80825260208201819052918101829052606081018290526080810182905260a0810182905260c0810182905260e0810182905261010081018290526101208101919091525f828152600260205260409020546001600160a01b031615158061062057505f828152600d602052604090206009015460ff16155b6106455760405162461bcd60e51b815260040161063c90612112565b60405180910390fd5b600d5f8381526020019081526020015f20604051806101400160405290815f8201548152602001600182015481526020016002820154815260200160038201548152602001600482015f9054906101000a900460ff1660038111156106ac576106ac611d3b565b60038111156106bd576106bd611d3b565b8152600582015460208201526006820154604082015260078201546001600160a01b031660608201526008820154608082015260099091015460ff16151560a09091015292915050565b7f9f2df0fed2c77648de5860a4cc508cd0818c85b8b8a1ab4ceeef8d981c8956a661073181611164565b5f838152600260205260409020546001600160a01b03166107645760405162461bcd60e51b815260040161063c90612112565b5f838152600d602052604090206009015460ff166107bc5760405162461bcd60e51b8152602060048201526015602482015274496e766f696365206973206e6f742061637469766560581b604482015260640161063c565b5f838152600d6020526040908190206001018390555183907f6ae5d25c02958209f63321a9cff5df806fdac0d104e52d9f8f9dc932b51ac749906108039085815260200190565b60405180910390a2505050565b6001600160a01b03821661083957604051633250574960e11b81525f600482015260240161063c565b5f610845838333611171565b9050836001600160a01b0316816001600160a01b031614610893576040516364283d7b60e01b81526001600160a01b038086166004830152602482018490528216604482015260640161063c565b50505050565b5f828152600a60205260409020600101546108b381611164565b6108938383611185565b5f6108c783610aa1565b82106108f85760405163295f44f760e21b81526001600160a01b03841660048201526024810183905260440161063c565b506001600160a01b03919091165f908152600660209081526040808320938352929052205490565b6001600160a01b03811633146109495760405163334bd91960e11b815260040160405180910390fd5b6109538282611216565b505050565b61095383838360405180602001604052805f815250611022565b5f8082600381111561098657610986611d3b565b0361099357506050919050565b60018260038111156109a7576109a7611d3b565b036109b45750603c919050565b60028260038111156109c8576109c8611d3b565b036109d557506028919050565b505f919050565b5f6109e660085490565b8210610a0e5760405163295f44f760e21b81525f60048201526024810183905260440161063c565b60088281548110610a2157610a21612140565b905f5260205f2001549050919050565b5f80826003811115610a4557610a45611d3b565b03610a5357506101f4919050565b6001826003811115610a6757610a67611d3b565b03610a755750610320919050565b6002826003811115610a8957610a89611d3b565b036109d557506104b0919050565b5f6104d08261111f565b5f6001600160a01b038216610acb576040516322718ad960e21b81525f600482015260240161063c565b506001600160a01b03165f9081526003602052604090205490565b7f3c11d16cbaffd01df69ce1c404f6340ee057498f5f00246190ea54220576a848610b1081611164565b610b18611281565b5f848152600260205260409020546001600160a01b0316610b4b5760405162461bcd60e51b815260040161063c90612112565b5f848152600d602052604090206009015460ff16610b9c5760405162461bcd60e51b815260206004820152600e60248201526d105b1c9958591e48189d5c9b995960921b604482015260640161063c565b5f848152600d6020908152604080832060098101805460ff1916905554808452600e909252822091909155610bd0856112ab565b336001600160a01b0316857fc1201540ef1a96bf9cdeb98b1b3ce5cbf5053af31019c5239bcde3fc6116c3d28686604051610c0c929190612154565b60405180910390a3506108936001600b55565b5f7f9f2df0fed2c77648de5860a4cc508cd0818c85b8b8a1ab4ceeef8d981c8956a6610c4a81611164565b610c52611281565b6001600160a01b038916610c9c5760405162461bcd60e51b8152602060048201526011602482015270125b9d985b1a59081c9958da5c1a595b9d607a1b604482015260640161063c565b87610ce05760405162461bcd60e51b8152602060048201526014602482015273092dcecc2d8d2c840d2dcecded2c6ca40d0c2e6d60631b604482015260640161063c565b5f8611610d2f5760405162461bcd60e51b815260206004820152601760248201527f416d6f756e74206d75737420626520706f736974697665000000000000000000604482015260640161063c565b428711610d7e5760405162461bcd60e51b815260206004820152601760248201527f4475652064617465206d75737420626520667574757265000000000000000000604482015260640161063c565b6064831115610dcf5760405162461bcd60e51b815260206004820152601960248201527f4f53494e542073636f7265206d75737420626520302d31303000000000000000604482015260640161063c565b5f888152600e602052604090205415610e235760405162461bcd60e51b8152602060048201526016602482015275125b9d9bda58d948185b1c9958591e481b5a5b9d195960521b604482015260640161063c565b5f600c5f8154610e3290612196565b91905081905590506040518061014001604052808a81526020015f801b8152602001898152602001888152602001876003811115610e7257610e72611d3b565b81526020018681526020018581526020018b6001600160a01b0316815260200142815260200160011515815250600d5f8381526020019081526020015f205f820151815f01556020820151816001015560408201518160020155606082015181600301556080820151816004015f6101000a81548160ff02191690836003811115610eff57610eff611d3b565b021790555060a0820151600582015560c0820151600682015560e08201516007820180546001600160a01b0319166001600160a01b039092169190911790556101008201516008820155610120909101516009909101805460ff19169115159190911790555f898152600e60205260409020819055610f7e8a826112e3565b896001600160a01b0316817f34c3629ecf38298816729cbf48f864b2830781e3ed2d04faae2a160622f9f0e08b8a8c8b604051610fbe94939291906121ae565b60405180910390a39150610fd26001600b55565b50979650505050505050565b5f918252600a602090815260408084206001600160a01b0393909316845291905290205460ff1690565b6060600180546104e4906120da565b6105973383836112fc565b61102d848484610810565b6108938484848461139a565b60606110448261111f565b505f61105a60408051602081019091525f815290565b90505f8151116110785760405180602001604052805f8152506110a3565b80611082846114c0565b6040516020016110939291906121d9565b6040516020818303038152906040525b9392505050565b5f828152600a60205260409020600101546110c481611164565b6108938383611216565b6001600160a01b039182165f90815260056020908152604080832093909416825291909152205460ff1690565b5f6001600160e01b03198216637965db0b60e01b14806104d057506104d082611550565b5f818152600260205260408120546001600160a01b0316806104d057604051637e27328960e01b81526004810184905260240161063c565b6109538383836001611574565b61116e8133611678565b50565b5f61117d8484846116b1565b949350505050565b5f6111908383610fde565b61120f575f838152600a602090815260408083206001600160a01b03861684529091529020805460ff191660011790556111c73390565b6001600160a01b0316826001600160a01b0316847f2f8788117e7eff1d82e926ec794901d17c78024a50270940304540a733656f0d60405160405180910390a45060016104d0565b505f6104d0565b5f6112218383610fde565b1561120f575f838152600a602090815260408083206001600160a01b0386168085529252808320805460ff1916905551339286917ff6391f5c32d9c69d2a47ea670b442974b53935d1edc7fd64eb21e047a839171b9190a45060016104d0565b6002600b54036112a457604051633ee5aeb560e01b815260040160405180910390fd5b6002600b55565b5f6112b75f835f611171565b90506001600160a01b03811661059757604051637e27328960e01b81526004810183905260240161063c565b610597828260405180602001604052805f81525061177c565b6001600160a01b03821661132e57604051630b61174360e31b81526001600160a01b038316600482015260240161063c565b6001600160a01b038381165f81815260056020908152604080832094871680845294825291829020805460ff191686151590811790915591519182527f17307eab39ab6107e8899845ad3d59bd9653f200f220920489ca2b5937696c31910160405180910390a3505050565b6001600160a01b0383163b1561089357604051630a85bd0160e11b81526001600160a01b0384169063150b7a02906113dc903390889087908790600401612207565b6020604051808303815f875af1925050508015611416575060408051601f3d908101601f1916820190925261141391810190612243565b60015b61147d573d808015611443576040519150601f19603f3d011682016040523d82523d5f602084013e611448565b606091505b5080515f0361147557604051633250574960e11b81526001600160a01b038516600482015260240161063c565b805181602001fd5b6001600160e01b03198116630a85bd0160e11b146114b957604051633250574960e11b81526001600160a01b038516600482015260240161063c565b5050505050565b60605f6114cc83611792565b60010190505f8167ffffffffffffffff8111156114eb576114eb611fc9565b6040519080825280601f01601f191660200182016040528015611515576020820181803683370190505b5090508181016020015b5f19016f181899199a1a9b1b9c1cb0b131b232b360811b600a86061a8153600a850494508461151f57509392505050565b5f6001600160e01b0319821663780e9d6360e01b14806104d057506104d082611869565b808061158857506001600160a01b03821615155b15611649575f6115978461111f565b90506001600160a01b038316158015906115c35750826001600160a01b0316816001600160a01b031614155b80156115d657506115d481846110ce565b155b156115ff5760405163a9fbf51f60e01b81526001600160a01b038416600482015260240161063c565b81156116475783856001600160a01b0316826001600160a01b03167f8c5be1e5ebec7d5bd14f71427d1e84f3dd0314c0f7b2291e5b200ac8c7c3b92560405160405180910390a45b505b50505f90815260046020526040902080546001600160a01b0319166001600160a01b0392909216919091179055565b6116828282610fde565b6105975760405163e2517d3f60e01b81526001600160a01b03821660048201526024810183905260440161063c565b5f806116be8585856118b8565b90506001600160a01b03811661171a5761171584600880545f838152600960205260408120829055600182018355919091527ff3f7a9fe364faab93b216da50a3214154f22a0a2b415b23a84c8169e8b636ee30155565b61173d565b846001600160a01b0316816001600160a01b03161461173d5761173d81856119aa565b6001600160a01b0385166117595761175484611a37565b61117d565b846001600160a01b0316816001600160a01b03161461117d5761117d8585611ade565b6117868383611b2c565b6109535f84848461139a565b5f8072184f03e93ff9f4daa797ed6e38ed64bf6a1f0160401b83106117d05772184f03e93ff9f4daa797ed6e38ed64bf6a1f0160401b830492506040015b6d04ee2d6d415b85acef810000000083106117fc576d04ee2d6d415b85acef8100000000830492506020015b662386f26fc10000831061181a57662386f26fc10000830492506010015b6305f5e1008310611832576305f5e100830492506008015b612710831061184657612710830492506004015b60648310611858576064830492506002015b600a83106104d05760010192915050565b5f6001600160e01b031982166380ac58cd60e01b148061189957506001600160e01b03198216635b5e139f60e01b145b806104d057506301ffc9a760e01b6001600160e01b03198316146104d0565b5f828152600260205260408120546001600160a01b03908116908316156118e4576118e4818486611b8d565b6001600160a01b0381161561191e576118ff5f855f80611574565b6001600160a01b0381165f90815260036020526040902080545f190190555b6001600160a01b0385161561194c576001600160a01b0385165f908152600360205260409020805460010190555b5f8481526002602052604080822080546001600160a01b0319166001600160a01b0389811691821790925591518793918516917fddf252ad1be2c89b69c2b068fc378daa952ba7f163c4a11628f55a4df523b3ef91a4949350505050565b5f6119b483610aa1565b5f83815260076020526040902054909150808214611a05576001600160a01b0384165f9081526006602090815260408083208584528252808320548484528184208190558352600790915290208190555b505f9182526007602090815260408084208490556001600160a01b039094168352600681528383209183525290812055565b6008545f90611a489060019061225e565b5f8381526009602052604081205460088054939450909284908110611a6f57611a6f612140565b905f5260205f20015490508060088381548110611a8e57611a8e612140565b5f918252602080832090910192909255828152600990915260408082208490558582528120556008805480611ac557611ac5612271565b600190038181905f5260205f20015f9055905550505050565b5f6001611aea84610aa1565b611af4919061225e565b6001600160a01b039093165f908152600660209081526040808320868452825280832085905593825260079052919091209190915550565b6001600160a01b038216611b5557604051633250574960e11b81525f600482015260240161063c565b5f611b6183835f611171565b90506001600160a01b03811615610953576040516339e3563760e11b81525f600482015260240161063c565b611b98838383611bf1565b610953576001600160a01b038316611bc657604051637e27328960e01b81526004810182905260240161063c565b60405163177e802f60e01b81526001600160a01b03831660048201526024810182905260440161063c565b5f6001600160a01b0383161580159061117d5750826001600160a01b0316846001600160a01b03161480611c2a5750611c2a84846110ce565b8061117d5750505f908152600460205260409020546001600160a01b03908116911614919050565b6001600160e01b03198116811461116e575f80fd5b5f60208284031215611c77575f80fd5b81356110a381611c52565b5f5b83811015611c9c578181015183820152602001611c84565b50505f910152565b5f8151808452611cbb816020860160208601611c82565b601f01601f19169290920160200192915050565b602081525f6110a36020830184611ca4565b5f60208284031215611cf1575f80fd5b5035919050565b80356001600160a01b0381168114611d0e575f80fd5b919050565b5f8060408385031215611d24575f80fd5b611d2d83611cf8565b946020939093013593505050565b634e487b7160e01b5f52602160045260245ffd5b60048110611d6b57634e487b7160e01b5f52602160045260245ffd5b9052565b5f61014082019050825182526020830151602083015260408301516040830152606083015160608301526080830151611dab6080840182611d4f565b5060a083015160a083015260c083015160c083015260e0830151611dda60e08401826001600160a01b03169052565b506101008381015190830152610120928301511515929091019190915290565b5f8060408385031215611e0b575f80fd5b50508035926020909101359150565b5f805f60608486031215611e2c575f80fd5b611e3584611cf8565b9250611e4360208501611cf8565b9150604084013590509250925092565b5f8060408385031215611e64575f80fd5b82359150611e7460208401611cf8565b90509250929050565b803560048110611d0e575f80fd5b5f60208284031215611e9b575f80fd5b6110a382611e7d565b5f60208284031215611eb4575f80fd5b6110a382611cf8565b5f805f60408486031215611ecf575f80fd5b83359250602084013567ffffffffffffffff80821115611eed575f80fd5b818601915086601f830112611f00575f80fd5b813581811115611f0e575f80fd5b876020828501011115611f1f575f80fd5b6020830194508093505050509250925092565b5f805f805f805f60e0888a031215611f48575f80fd5b611f5188611cf8565b9650602088013595506040880135945060608801359350611f7460808901611e7d565b925060a0880135915060c0880135905092959891949750929550565b5f8060408385031215611fa1575f80fd5b611faa83611cf8565b915060208301358015158114611fbe575f80fd5b809150509250929050565b634e487b7160e01b5f52604160045260245ffd5b5f805f8060808587031215611ff0575f80fd5b611ff985611cf8565b935061200760208601611cf8565b925060408501359150606085013567ffffffffffffffff8082111561202a575f80fd5b818701915087601f83011261203d575f80fd5b81358181111561204f5761204f611fc9565b604051601f8201601f19908116603f0116810190838211818310171561207757612077611fc9565b816040528281528a602084870101111561208f575f80fd5b826020860160208301375f60208483010152809550505050505092959194509250565b5f80604083850312156120c3575f80fd5b6120cc83611cf8565b9150611e7460208401611cf8565b600181811c908216806120ee57607f821691505b60208210810361210c57634e487b7160e01b5f52602260045260245ffd5b50919050565b602080825260149082015273151bdad95b88191bd95cc81b9bdd08195e1a5cdd60621b604082015260600190565b634e487b7160e01b5f52603260045260245ffd5b60208152816020820152818360408301375f818301604090810191909152601f909201601f19160101919050565b634e487b7160e01b5f52601160045260245ffd5b5f600182016121a7576121a7612182565b5060010190565b8481526020810184905260408101839052608081016121d06060830184611d4f565b95945050505050565b5f83516121ea818460208801611c82565b8351908301906121fe818360208801611c82565b01949350505050565b6001600160a01b03858116825284166020820152604081018390526080606082018190525f9061223990830184611ca4565b9695505050505050565b5f60208284031215612253575f80fd5b81516110a381611c52565b818103818111156104d0576104d0612182565b634e487b7160e01b5f52603160045260245ffdfea2646970667358221220803d1c43cf4cca6bbf5b6e791f5ea21185b5e46cb2b7ab85cc7196a7d4160ebd64736f6c63430008140033",
        "linkReferences": {}
    },
    "methodIdentifiers": {
        "BURNER_ROLE()": "282c51f3",
        "DEFAULT_ADMIN_ROLE()": "a217fddf",
        "MINTER_ROLE()": "d5391393",
        "approve(address,uint256)": "095ea7b3",
        "balanceOf(address)": "70a08231",
        "burn(uint256,string)": "7641e6f3",
        "getApproved(uint256)": "081812fc",
        "getInterestRateByTier(uint8)": "5354a0e2",
        "getInvoiceData(uint256)": "09a2283a",
        "getLTVByTier(uint8)": "47590a73",
        "getRoleAdmin(bytes32)": "248a9ca3",
        "getTokenByInvoiceHash(bytes32)": "fde3c8c5",
        "grantRole(bytes32,address)": "2f2ff15d",
        "hasRole(bytes32,address)": "91d14854",
        "isApprovedForAll(address,address)": "e985e9c5",
        "isInvoiceActive(uint256)": "b2e3dff3",
        "mint(address,bytes32,uint256,uint256,uint8,bytes32,uint256)": "8506276f",
        "name()": "06fdde03",
        "ownerOf(uint256)": "6352211e",
        "renounceRole(bytes32,address)": "36568abe",
        "revokeRole(bytes32,address)": "d547741f",
        "safeTransferFrom(address,address,uint256)": "42842e0e",
        "safeTransferFrom(address,address,uint256,bytes)": "b88d4fde",
        "setApprovalForAll(address,bool)": "a22cb465",
        "setDebtorConfirmation(uint256,bytes32)": "1a7b5282",
        "supportsInterface(bytes4)": "01ffc9a7",
        "symbol()": "95d89b41",
        "tokenByIndex(uint256)": "4f6ccce7",
        "tokenOfOwnerByIndex(address,uint256)": "2f745c59",
        "tokenURI(uint256)": "c87b56dd",
        "totalSupply()": "18160ddd",
        "transferFrom(address,address,uint256)": "23b872dd"
    },
    "id": 61
}