{
  "abi": [
    {
      "type": "constructor",
      "inputs": [
        {
          "name": "_invoiceNFT",
          "type": "address",
          "internalType": "address"
        },
        {
          "name": "_escrow",
          "type": "address",
          "internalType": "address"
        }
      ],
      "stateMutability": "nonpayable"
    },
    {
      "type": "function",
      "name": "BPS_DENOMINATOR",
      "inputs": [],
      "outputs": [
        {
          "name": "",
          "type": "uint256",
          "internalType": "uint256"
        }
      ],
      "stateMutability": "view"
    },
    {
      "type": "function",
      "name": "CHALLENGE_PERIOD",
      "inputs": [],
      "outputs": [
        {
          "name": "",
          "type": "uint256",
          "internalType": "uint256"
        }
      ],
      "stateMutability": "view"
    },
    {
      "type": "function",
      "name": "DEFAULT_ADMIN_ROLE",
      "inputs": [],
      "outputs": [
        {
          "name": "",
          "type": "bytes32",
          "internalType": "bytes32"
        }
      ],
      "stateMutability": "view"
    },
    {
      "type": "function",
      "name": "INSURANCE_FEE_BPS",
      "inputs": [],
      "outputs": [
        {
          "name": "",
          "type": "uint256",
          "internalType": "uint256"
        }
      ],
      "stateMutability": "view"
    },
    {
      "type": "function",
      "name": "KEEPER_ROLE",
      "inputs": [],
      "outputs": [
        {
          "name": "",
          "type": "bytes32",
          "internalType": "bytes32"
        }
      ],
      "stateMutability": "view"
    },
    {
      "type": "function",
      "name": "ORACLE_ROLE",
      "inputs": [],
      "outputs": [
        {
          "name": "",
          "type": "bytes32",
          "internalType": "bytes32"
        }
      ],
      "stateMutability": "view"
    },
    {
      "type": "function",
      "name": "ORIGINATION_FEE_BPS",
      "inputs": [],
      "outputs": [
        {
          "name": "",
          "type": "uint256",
          "internalType": "uint256"
        }
      ],
      "stateMutability": "view"
    },
    {
      "type": "function",
      "name": "PENALTY_RATE_MULTIPLIER",
      "inputs": [],
      "outputs": [
        {
          "name": "",
          "type": "uint256",
          "internalType": "uint256"
        }
      ],
      "stateMutability": "view"
    },
    {
      "type": "function",
      "name": "SECONDS_PER_YEAR",
      "inputs": [],
      "outputs": [
        {
          "name": "",
          "type": "uint256",
          "internalType": "uint256"
        }
      ],
      "stateMutability": "view"
    },
    {
      "type": "function",
      "name": "activateLoan",
      "inputs": [
        {
          "name": "loanId",
          "type": "uint256",
          "internalType": "uint256"
        }
      ],
      "outputs": [],
      "stateMutability": "nonpayable"
    },
    {
      "type": "function",
      "name": "addCurrency",
      "inputs": [
        {
          "name": "currency",
          "type": "address",
          "internalType": "address"
        }
      ],
      "outputs": [],
      "stateMutability": "nonpayable"
    },
    {
      "type": "function",
      "name": "availableLiquidity",
      "inputs": [
        {
          "name": "",
          "type": "address",
          "internalType": "address"
        }
      ],
      "outputs": [
        {
          "name": "",
          "type": "uint256",
          "internalType": "uint256"
        }
      ],
      "stateMutability": "view"
    },
    {
      "type": "function",
      "name": "calculateTotalOwed",
      "inputs": [
        {
          "name": "loanId",
          "type": "uint256",
          "internalType": "uint256"
        }
      ],
      "outputs": [
        {
          "name": "",
          "type": "uint256",
          "internalType": "uint256"
        }
      ],
      "stateMutability": "view"
    },
    {
      "type": "function",
      "name": "challengeLoan",
      "inputs": [
        {
          "name": "loanId",
          "type": "uint256",
          "internalType": "uint256"
        },
        {
          "name": "reason",
          "type": "string",
          "internalType": "string"
        }
      ],
      "outputs": [],
      "stateMutability": "nonpayable"
    },
    {
      "type": "function",
      "name": "challenges",
      "inputs": [
        {
          "name": "",
          "type": "uint256",
          "internalType": "uint256"
        }
      ],
      "outputs": [
        {
          "name": "challenger",
          "type": "address",
          "internalType": "address"
        },
        {
          "name": "reason",
          "type": "string",
          "internalType": "string"
        },
        {
          "name": "createdAt",
          "type": "uint256",
          "internalType": "uint256"
        },
        {
          "name": "resolved",
          "type": "bool",
          "internalType": "bool"
        },
        {
          "name": "accepted",
          "type": "bool",
          "internalType": "bool"
        }
      ],
      "stateMutability": "view"
    },
    {
      "type": "function",
      "name": "createLoan",
      "inputs": [
        {
          "name": "tokenId",
          "type": "uint256",
          "internalType": "uint256"
        },
        {
          "name": "currency",
          "type": "address",
          "internalType": "address"
        }
      ],
      "outputs": [
        {
          "name": "",
          "type": "uint256",
          "internalType": "uint256"
        }
      ],
      "stateMutability": "nonpayable"
    },
    {
      "type": "function",
      "name": "currencyList",
      "inputs": [
        {
          "name": "",
          "type": "uint256",
          "internalType": "uint256"
        }
      ],
      "outputs": [
        {
          "name": "",
          "type": "address",
          "internalType": "address"
        }
      ],
      "stateMutability": "view"
    },
    {
      "type": "function",
      "name": "deposit",
      "inputs": [
        {
          "name": "currency",
          "type": "address",
          "internalType": "address"
        },
        {
          "name": "amount",
          "type": "uint256",
          "internalType": "uint256"
        }
      ],
      "outputs": [],
      "stateMutability": "nonpayable"
    },
    {
      "type": "function",
      "name": "escrow",
      "inputs": [],
      "outputs": [
        {
          "name": "",
          "type": "address",
          "internalType": "contract Escrow"
        }
      ],
      "stateMutability": "view"
    },
    {
      "type": "function",
      "name": "getChallenge",
      "inputs": [
        {
          "name": "loanId",
          "type": "uint256",
          "internalType": "uint256"
        }
      ],
      "outputs": [
        {
          "name": "",
          "type": "tuple",
          "internalType": "struct LendingPool.Challenge",
          "components": [
            {
              "name": "challenger",
              "type": "address",
              "internalType": "address"
            },
            {
              "name": "reason",
              "type": "string",
              "internalType": "string"
            },
            {
              "name": "createdAt",
              "type": "uint256",
              "internalType": "uint256"
            },
            {
              "name": "resolved",
              "type": "bool",
              "internalType": "bool"
            },
            {
              "name": "accepted",
              "type": "bool",
              "internalType": "bool"
            }
          ]
        }
      ],
      "stateMutability": "view"
    },
    {
      "type": "function",
      "name": "getLPBalance",
      "inputs": [
        {
          "name": "lp",
          "type": "address",
          "internalType": "address"
        },
        {
          "name": "currency",
          "type": "address",
          "internalType": "address"
        }
      ],
      "outputs": [
        {
          "name": "",
          "type": "uint256",
          "internalType": "uint256"
        }
      ],
      "stateMutability": "view"
    },
    {
      "type": "function",
      "name": "getLoan",
      "inputs": [
        {
          "name": "loanId",
          "type": "uint256",
          "internalType": "uint256"
        }
      ],
      "outputs": [
        {
          "name": "",
          "type": "tuple",
          "internalType": "struct LendingPool.Loan",
          "components": [
            {
              "name": "tokenId",
              "type": "uint256",
              "internalType": "uint256"
            },
            {
              "name": "borrower",
              "type": "address",
              "internalType": "address"
            },
            {
              "name": "currency",
              "type": "address",
              "internalType": "address"
            },
            {
              "name": "principal",
              "type": "uint256",
              "internalType": "uint256"
            },
            {
              "name": "interestRate",
              "type": "uint256",
              "internalType": "uint256"
            },
            {
              "name": "dueDate",
              "type": "uint256",
              "internalType": "uint256"
            },
            {
              "name": "createdAt",
              "type": "uint256",
              "internalType": "uint256"
            },
            {
              "name": "challengeEndTime",
              "type": "uint256",
              "internalType": "uint256"
            },
            {
              "name": "repaidAmount",
              "type": "uint256",
              "internalType": "uint256"
            },
            {
              "name": "status",
              "type": "uint8",
              "internalType": "enum LendingPool.LoanStatus"
            },
            {
              "name": "tier",
              "type": "uint8",
              "internalType": "enum InvoiceNFT.RiskTier"
            },
            {
              "name": "penaltyRate",
              "type": "uint256",
              "internalType": "uint256"
            }
          ]
        }
      ],
      "stateMutability": "view"
    },
    {
      "type": "function",
      "name": "getRoleAdmin",
      "inputs": [
        {
          "name": "role",
          "type": "bytes32",
          "internalType": "bytes32"
        }
      ],
      "outputs": [
        {
          "name": "",
          "type": "bytes32",
          "internalType": "bytes32"
        }
      ],
      "stateMutability": "view"
    },
    {
      "type": "function",
      "name": "getSupportedCurrencies",
      "inputs": [],
      "outputs": [
        {
          "name": "",
          "type": "address[]",
          "internalType": "address[]"
        }
      ],
      "stateMutability": "view"
    },
    {
      "type": "function",
      "name": "grantRole",
      "inputs": [
        {
          "name": "role",
          "type": "bytes32",
          "internalType": "bytes32"
        },
        {
          "name": "account",
          "type": "address",
          "internalType": "address"
        }
      ],
      "outputs": [],
      "stateMutability": "nonpayable"
    },
    {
      "type": "function",
      "name": "hasRole",
      "inputs": [
        {
          "name": "role",
          "type": "bytes32",
          "internalType": "bytes32"
        },
        {
          "name": "account",
          "type": "address",
          "internalType": "address"
        }
      ],
      "outputs": [
        {
          "name": "",
          "type": "bool",
          "internalType": "bool"
        }
      ],
      "stateMutability": "view"
    },
    {
      "type": "function",
      "name": "insuranceFund",
      "inputs": [
        {
          "name": "",
          "type": "address",
          "internalType": "address"
        }
      ],
      "outputs": [
        {
          "name": "",
          "type": "uint256",
          "internalType": "uint256"
        }
      ],
      "stateMutability": "view"
    },
    {
      "type": "function",
      "name": "invoiceNFT",
      "inputs": [],
      "outputs": [
        {
          "name": "",
          "type": "address",
          "internalType": "contract InvoiceNFT"
        }
      ],
      "stateMutability": "view"
    },
    {
      "type": "function",
      "name": "isInChallengePeriod",
      "inputs": [
        {
          "name": "loanId",
          "type": "uint256",
          "internalType": "uint256"
        }
      ],
      "outputs": [
        {
          "name": "",
          "type": "bool",
          "internalType": "bool"
        }
      ],
      "stateMutability": "view"
    },
    {
      "type": "function",
      "name": "liquidator",
      "inputs": [],
      "outputs": [
        {
          "name": "",
          "type": "address",
          "internalType": "address"
        }
      ],
      "stateMutability": "view"
    },
    {
      "type": "function",
      "name": "loans",
      "inputs": [
        {
          "name": "",
          "type": "uint256",
          "internalType": "uint256"
        }
      ],
      "outputs": [
        {
          "name": "tokenId",
          "type": "uint256",
          "internalType": "uint256"
        },
        {
          "name": "borrower",
          "type": "address",
          "internalType": "address"
        },
        {
          "name": "currency",
          "type": "address",
          "internalType": "address"
        },
        {
          "name": "principal",
          "type": "uint256",
          "internalType": "uint256"
        },
        {
          "name": "interestRate",
          "type": "uint256",
          "internalType": "uint256"
        },
        {
          "name": "dueDate",
          "type": "uint256",
          "internalType": "uint256"
        },
        {
          "name": "createdAt",
          "type": "uint256",
          "internalType": "uint256"
        },
        {
          "name": "challengeEndTime",
          "type": "uint256",
          "internalType": "uint256"
        },
        {
          "name": "repaidAmount",
          "type": "uint256",
          "internalType": "uint256"
        },
        {
          "name": "status",
          "type": "uint8",
          "internalType": "enum LendingPool.LoanStatus"
        },
        {
          "name": "tier",
          "type": "uint8",
          "internalType": "enum InvoiceNFT.RiskTier"
        },
        {
          "name": "penaltyRate",
          "type": "uint256",
          "internalType": "uint256"
        }
      ],
      "stateMutability": "view"
    },
    {
      "type": "function",
      "name": "lpDeposits",
      "inputs": [
        {
          "name": "",
          "type": "address",
          "internalType": "address"
        },
        {
          "name": "",
          "type": "address",
          "internalType": "address"
        }
      ],
      "outputs": [
        {
          "name": "",
          "type": "uint256",
          "internalType": "uint256"
        }
      ],
      "stateMutability": "view"
    },
    {
      "type": "function",
      "name": "markDefaulted",
      "inputs": [
        {
          "name": "loanId",
          "type": "uint256",
          "internalType": "uint256"
        }
      ],
      "outputs": [],
      "stateMutability": "nonpayable"
    },
    {
      "type": "function",
      "name": "markOverdue",
      "inputs": [
        {
          "name": "loanId",
          "type": "uint256",
          "internalType": "uint256"
        }
      ],
      "outputs": [],
      "stateMutability": "nonpayable"
    },
    {
      "type": "function",
      "name": "removeCurrency",
      "inputs": [
        {
          "name": "currency",
          "type": "address",
          "internalType": "address"
        }
      ],
      "outputs": [],
      "stateMutability": "nonpayable"
    },
    {
      "type": "function",
      "name": "renounceRole",
      "inputs": [
        {
          "name": "role",
          "type": "bytes32",
          "internalType": "bytes32"
        },
        {
          "name": "callerConfirmation",
          "type": "address",
          "internalType": "address"
        }
      ],
      "outputs": [],
      "stateMutability": "nonpayable"
    },
    {
      "type": "function",
      "name": "repay",
      "inputs": [
        {
          "name": "loanId",
          "type": "uint256",
          "internalType": "uint256"
        },
        {
          "name": "amount",
          "type": "uint256",
          "internalType": "uint256"
        }
      ],
      "outputs": [],
      "stateMutability": "nonpayable"
    },
    {
      "type": "function",
      "name": "resolveChallenge",
      "inputs": [
        {
          "name": "loanId",
          "type": "uint256",
          "internalType": "uint256"
        },
        {
          "name": "accepted",
          "type": "bool",
          "internalType": "bool"
        },
        {
          "name": "resolution",
          "type": "string",
          "internalType": "string"
        }
      ],
      "outputs": [],
      "stateMutability": "nonpayable"
    },
    {
      "type": "function",
      "name": "revokeRole",
      "inputs": [
        {
          "name": "role",
          "type": "bytes32",
          "internalType": "bytes32"
        },
        {
          "name": "account",
          "type": "address",
          "internalType": "address"
        }
      ],
      "outputs": [],
      "stateMutability": "nonpayable"
    },
    {
      "type": "function",
      "name": "setLiquidator",
      "inputs": [
        {
          "name": "_liquidator",
          "type": "address",
          "internalType": "address"
        }
      ],
      "outputs": [],
      "stateMutability": "nonpayable"
    },
    {
      "type": "function",
      "name": "startLiquidation",
      "inputs": [
        {
          "name": "loanId",
          "type": "uint256",
          "internalType": "uint256"
        }
      ],
      "outputs": [],
      "stateMutability": "nonpayable"
    },
    {
      "type": "function",
      "name": "supportedCurrencies",
      "inputs": [
        {
          "name": "",
          "type": "address",
          "internalType": "address"
        }
      ],
      "outputs": [
        {
          "name": "",
          "type": "bool",
          "internalType": "bool"
        }
      ],
      "stateMutability": "view"
    },
    {
      "type": "function",
      "name": "supportsInterface",
      "inputs": [
        {
          "name": "interfaceId",
          "type": "bytes4",
          "internalType": "bytes4"
        }
      ],
      "outputs": [
        {
          "name": "",
          "type": "bool",
          "internalType": "bool"
        }
      ],
      "stateMutability": "view"
    },
    {
      "type": "function",
      "name": "totalDeposits",
      "inputs": [
        {
          "name": "",
          "type": "address",
          "internalType": "address"
        }
      ],
      "outputs": [
        {
          "name": "",
          "type": "uint256",
          "internalType": "uint256"
        }
      ],
      "stateMutability": "view"
    },
    {
      "type": "function",
      "name": "withdraw",
      "inputs": [
        {
          "name": "currency",
          "type": "address",
          "internalType": "address"
        },
        {
          "name": "amount",
          "type": "uint256",
          "internalType": "uint256"
        }
      ],
      "outputs": [],
      "stateMutability": "nonpayable"
    },
    {
      "type": "event",
      "name": "ChallengeResolved",
      "inputs": [
        {
          "name": "loanId",
          "type": "uint256",
          "indexed": true,
          "internalType": "uint256"
        },
        {
          "name": "accepted",
          "type": "bool",
          "indexed": false,
          "internalType": "bool"
        },
        {
          "name": "resolution",
          "type": "string",
          "indexed": false,
          "internalType": "string"
        }
      ],
      "anonymous": false
    },
    {
      "type": "event",
      "name": "CurrencyAdded",
      "inputs": [
        {
          "name": "currency",
          "type": "address",
          "indexed": true,
          "internalType": "address"
        }
      ],
      "anonymous": false
    },
    {
      "type": "event",
      "name": "CurrencyRemoved",
      "inputs": [
        {
          "name": "currency",
          "type": "address",
          "indexed": true,
          "internalType": "address"
        }
      ],
      "anonymous": false
    },
    {
      "type": "event",
      "name": "Deposited",
      "inputs": [
        {
          "name": "lp",
          "type": "address",
          "indexed": true,
          "internalType": "address"
        },
        {
          "name": "currency",
          "type": "address",
          "indexed": true,
          "internalType": "address"
        },
        {
          "name": "amount",
          "type": "uint256",
          "indexed": false,
          "internalType": "uint256"
        }
      ],
      "anonymous": false
    },
    {
      "type": "event",
      "name": "InsuranceFundContribution",
      "inputs": [
        {
          "name": "currency",
          "type": "address",
          "indexed": true,
          "internalType": "address"
        },
        {
          "name": "amount",
          "type": "uint256",
          "indexed": false,
          "internalType": "uint256"
        }
      ],
      "anonymous": false
    },
    {
      "type": "event",
      "name": "LoanActivated",
      "inputs": [
        {
          "name": "loanId",
          "type": "uint256",
          "indexed": true,
          "internalType": "uint256"
        },
        {
          "name": "timestamp",
          "type": "uint256",
          "indexed": false,
          "internalType": "uint256"
        }
      ],
      "anonymous": false
    },
    {
      "type": "event",
      "name": "LoanChallenged",
      "inputs": [
        {
          "name": "loanId",
          "type": "uint256",
          "indexed": true,
          "internalType": "uint256"
        },
        {
          "name": "challenger",
          "type": "address",
          "indexed": true,
          "internalType": "address"
        },
        {
          "name": "reason",
          "type": "string",
          "indexed": false,
          "internalType": "string"
        }
      ],
      "anonymous": false
    },
    {
      "type": "event",
      "name": "LoanCreated",
      "inputs": [
        {
          "name": "loanId",
          "type": "uint256",
          "indexed": true,
          "internalType": "uint256"
        },
        {
          "name": "tokenId",
          "type": "uint256",
          "indexed": true,
          "internalType": "uint256"
        },
        {
          "name": "borrower",
          "type": "address",
          "indexed": true,
          "internalType": "address"
        },
        {
          "name": "currency",
          "type": "address",
          "indexed": false,
          "internalType": "address"
        },
        {
          "name": "principal",
          "type": "uint256",
          "indexed": false,
          "internalType": "uint256"
        },
        {
          "name": "dueDate",
          "type": "uint256",
          "indexed": false,
          "internalType": "uint256"
        },
        {
          "name": "tier",
          "type": "uint8",
          "indexed": false,
          "internalType": "enum InvoiceNFT.RiskTier"
        }
      ],
      "anonymous": false
    },
    {
      "type": "event",
      "name": "LoanDefaulted",
      "inputs": [
        {
          "name": "loanId",
          "type": "uint256",
          "indexed": true,
          "internalType": "uint256"
        },
        {
          "name": "timestamp",
          "type": "uint256",
          "indexed": false,
          "internalType": "uint256"
        }
      ],
      "anonymous": false
    },
    {
      "type": "event",
      "name": "LoanLiquidated",
      "inputs": [
        {
          "name": "loanId",
          "type": "uint256",
          "indexed": true,
          "internalType": "uint256"
        },
        {
          "name": "timestamp",
          "type": "uint256",
          "indexed": false,
          "internalType": "uint256"
        }
      ],
      "anonymous": false
    },
    {
      "type": "event",
      "name": "LoanOverdue",
      "inputs": [
        {
          "name": "loanId",
          "type": "uint256",
          "indexed": true,
          "internalType": "uint256"
        },
        {
          "name": "daysOverdue",
          "type": "uint256",
          "indexed": false,
          "internalType": "uint256"
        }
      ],
      "anonymous": false
    },
    {
      "type": "event",
      "name": "LoanRepaid",
      "inputs": [
        {
          "name": "loanId",
          "type": "uint256",
          "indexed": true,
          "internalType": "uint256"
        },
        {
          "name": "amount",
          "type": "uint256",
          "indexed": false,
          "internalType": "uint256"
        },
        {
          "name": "totalRepaid",
          "type": "uint256",
          "indexed": false,
          "internalType": "uint256"
        },
        {
          "name": "fullyRepaid",
          "type": "bool",
          "indexed": false,
          "internalType": "bool"
        }
      ],
      "anonymous": false
    },
    {
      "type": "event",
      "name": "RoleAdminChanged",
      "inputs": [
        {
          "name": "role",
          "type": "bytes32",
          "indexed": true,
          "internalType": "bytes32"
        },
        {
          "name": "previousAdminRole",
          "type": "bytes32",
          "indexed": true,
          "internalType": "bytes32"
        },
        {
          "name": "newAdminRole",
          "type": "bytes32",
          "indexed": true,
          "internalType": "bytes32"
        }
      ],
      "anonymous": false
    },
    {
      "type": "event",
      "name": "RoleGranted",
      "inputs": [
        {
          "name": "role",
          "type": "bytes32",
          "indexed": true,
          "internalType": "bytes32"
        },
        {
          "name": "account",
          "type": "address",
          "indexed": true,
          "internalType": "address"
        },
        {
          "name": "sender",
          "type": "address",
          "indexed": true,
          "internalType": "address"
        }
      ],
      "anonymous": false
    },
    {
      "type": "event",
      "name": "RoleRevoked",
      "inputs": [
        {
          "name": "role",
          "type": "bytes32",
          "indexed": true,
          "internalType": "bytes32"
        },
        {
          "name": "account",
          "type": "address",
          "indexed": true,
          "internalType": "address"
        },
        {
          "name": "sender",
          "type": "address",
          "indexed": true,
          "internalType": "address"
        }
      ],
      "anonymous": false
    },
    {
      "type": "event",
      "name": "Withdrawn",
      "inputs": [
        {
          "name": "lp",
          "type": "address",
          "indexed": true,
          "internalType": "address"
        },
        {
          "name": "currency",
          "type": "address",
          "indexed": true,
          "internalType": "address"
        },
        {
          "name": "amount",
          "type": "uint256",
          "indexed": false,
          "internalType": "uint256"
        }
      ],
      "anonymous": false
    },
    {
      "type": "error",
      "name": "AccessControlBadConfirmation",
      "inputs": []
    },
    {
      "type": "error",
      "name": "AccessControlUnauthorizedAccount",
      "inputs": [
        {
          "name": "account",
          "type": "address",
          "internalType": "address"
        },
        {
          "name": "neededRole",
          "type": "bytes32",
          "internalType": "bytes32"
        }
      ]
    },
    {
      "type": "error",
      "name": "AddressEmptyCode",
      "inputs": [
        {
          "name": "target",
          "type": "address",
          "internalType": "address"
        }
      ]
    },
    {
      "type": "error",
      "name": "AddressInsufficientBalance",
      "inputs": [
        {
          "name": "account",
          "type": "address",
          "internalType": "address"
        }
      ]
    },
    {
      "type": "error",
      "name": "FailedInnerCall",
      "inputs": []
    },
    {
      "type": "error",
      "name": "ReentrancyGuardReentrantCall",
      "inputs": []
    },
    {
      "type": "error",
      "name": "SafeERC20FailedOperation",
      "inputs": [
        {
          "name": "token",
          "type": "address",
          "internalType": "address"
        }
      ]
    }
  ],
  "bytecode": {
    "object": "0x608060405234801562000010575f80fd5b506040516200383c3803806200383c833981016040819052620000339162000225565b600180556001600160a01b038216620000935760405162461bcd60e51b815260206004820152601360248201527f496e76616c6964204e465420616464726573730000000000000000000000000060448201526064015b60405180910390fd5b6001600160a01b038116620000eb5760405162461bcd60e51b815260206004820152601660248201527f496e76616c696420657363726f7720616464726573730000000000000000000060448201526064016200008a565b600280546001600160a01b038085166001600160a01b0319928316179092556003805492841692909116919091179055620001275f336200015d565b50620001547ffc8737ab85eb45125971625a9ebdb75cc78e01d5c1fa80c4c6e5203f47bc4fab336200015d565b5050506200025b565b5f828152602081815260408083206001600160a01b038516845290915281205460ff1662000200575f838152602081815260408083206001600160a01b03861684529091529020805460ff19166001179055620001b73390565b6001600160a01b0316826001600160a01b0316847f2f8788117e7eff1d82e926ec794901d17c78024a50270940304540a733656f0d60405160405180910390a450600162000203565b505f5b92915050565b80516001600160a01b038116811462000220575f80fd5b919050565b5f806040838503121562000237575f80fd5b620002428362000209565b9150620002526020840162000209565b90509250929050565b6135d380620002695f395ff3fe608060405234801561000f575f80fd5b5060043610610276575f3560e01c80638f1d377611610156578063d547741f116100ca578063e6a69ab811610084578063e6a69ab81461068b578063e940325614610696578063ec660a80146106b5578063f0d053dc146106c8578063f3fef3a3146106db578063fc32298a146106ee575f80fd5b8063d547741f1461059d578063d8aed145146105b0578063dcfa2bb6146105c3578063e1a45218146105d6578063e1ec3c68146105df578063e2fdcc1714610678575f80fd5b8063a8f8278e1161011b578063a8f8278e146104f3578063ace2bed51461052b578063af7597401461054d578063c3a079ed14610556578063c5d3a10714610560578063cd31a9e314610573575f80fd5b80638f1d37761461049a57806391d14854146104be578063980a8bd9146104d1578063a217fddf146104e4578063a74b637c146104eb575f80fd5b80632f2ff15d116101ed57806347e7ef24116101b257806347e7ef24146104265780634bb6f06d14610439578063504006ca1461044c5780635a866fdc1461046c57806373216450146104745780638ab234b614610487575f80fd5b80632f2ff15d146103ae578063364bc15a146103c157806336568abe146103d55780634046ebae146103e85780634644004d14610413575f80fd5b80631bdd4b741161023e5780631bdd4b741461031e578063248a9ca31461033e57806326b3e9b114610360578063272e848e1461037357806329194ee3146103865780632ce7586314610399575f80fd5b806301c76f811461027a57806301ffc9a71461028f57806307e2cea5146102b7578063181f37c8146102ec5780631baa6a5c1461030b575b5f80fd5b61028d610288366004612cf6565b61070d565b005b6102a261029d366004612d11565b61078a565b60405190151581526020015b60405180910390f35b6102de7f68e79a7bf1e0bc45d0a330c573bc367f9cf464fd326078812f301165fbda4ef181565b6040519081526020016102ae565b6102de6102fa366004612cf6565b600c6020525f908152604090205481565b61028d610319366004612d8a565b6107c0565b61033161032c366004612de2565b6109f4565b6040516102ae9190612e46565b6102de61034c366004612de2565b5f9081526020819052604090206001015490565b6102a261036e366004612de2565b610b0a565b6102de610381366004612ea1565b610c33565b6102de610394366004612de2565b611398565b6103a16115b9565b6040516102ae9190612ecf565b61028d6103bc366004612ea1565b611619565b6102de5f8051602061357e83398151915281565b61028d6103e3366004612ea1565b611643565b6004546103fb906001600160a01b031681565b6040516001600160a01b0390911681526020016102ae565b61028d610421366004612de2565b61167b565b61028d610434366004612f1b565b6117e9565b6002546103fb906001600160a01b031681565b61045f61045a366004612de2565b61198c565b6040516102ae9190612f7d565b6102de606481565b61028d610482366004612de2565b611a94565b61028d610495366004612cf6565b611bae565b6104ad6104a8366004612de2565b611ce9565b6040516102ae959493929190613034565b6102a26104cc366004612ea1565b611dae565b61028d6104df366004612de2565b611dd6565b6102de5f81565b6102de60c881565b6102de610501366004613076565b6001600160a01b039182165f908152600a6020908152604080832093909416825291909152205490565b6102a2610539366004612cf6565b60086020525f908152604090205460ff1681565b6102de6101f481565b6102de6201518081565b61028d61056e366004612cf6565b611f4d565b6102de610581366004613076565b600a60209081525f928352604080842090915290825290205481565b61028d6105ab366004612ea1565b612158565b61028d6105be3660046130a2565b61217c565b61028d6105d13660046130c2565b6123d2565b6102de61271081565b6106606105ed366004612de2565b600660208190525f918252604090912080546001820154600283015460038401546004850154600586015496860154600787015460088801546009890154600a9099015497996001600160a01b03978816999790961697949693959492939192909160ff8082169261010090920416908c565b6040516102ae9c9b9a9998979695949392919061310a565b6003546103fb906001600160a01b031681565b6102de6301e1338081565b6102de6106a4366004612cf6565b600b6020525f908152604090205481565b61028d6106c3366004612de2565b612601565b6103fb6106d6366004612de2565b612730565b61028d6106e9366004612f1b565b612758565b6102de6106fc366004612cf6565b600d6020525f908152604090205481565b5f6107178161290a565b6001600160a01b0382166107675760405162461bcd60e51b815260206004820152601260248201527124b73b30b634b2103634b8bab4b230ba37b960711b60448201526064015b60405180910390fd5b50600480546001600160a01b0319166001600160a01b0392909216919091179055565b5f6001600160e01b03198216637965db0b60e01b14806107ba57506301ffc9a760e01b6001600160e01b03198316145b92915050565b5f6107ca8161290a565b5f85815260066020819052604090912090600982015460ff1660068111156107f4576107f4612f45565b146108325760405162461bcd60e51b815260206004820152600e60248201526d139bdd0818da185b1b195b99d95960921b604482015260640161075e565b5f868152600760205260409020600381015460ff16156108875760405162461bcd60e51b815260206004820152601060248201526f105b1c9958591e481c995cdbdb1d995960821b604482015260640161075e565b600381018054871580156101000261ffff1990921691909117600117909155610990575f612710606484600301546108bf919061319c565b6108c991906131b3565b90505f8184600301546108dc91906131d2565b60028501546001600160a01b03165f908152600c602052604081208054929350839290919061090c9084906131e5565b90915550506003548454604051630698a62160e01b81526001600160a01b0390921691630698a6219161094c918d90600401918252602082015260400190565b5f604051808303815f87803b158015610963575f80fd5b505af1158015610975573d5f803e3d5ffd5b5050505060098401805460ff19166005179055506109af9050565b60098201805460ff191690556109a962015180426131e5565b60078301555b867f2d899f516003fd87bac554af320b8db6e1b7e76f0e09ecc61289561912a133148787876040516109e393929190613220565b60405180910390a250505050505050565b6040805160a0810182525f80825260606020830181905292820181905291810182905260808101919091525f82815260076020908152604091829020825160a0810190935280546001600160a01b031683526001810180549192840191610a5a90613244565b80601f0160208091040260200160405190810160405280929190818152602001828054610a8690613244565b8015610ad15780601f10610aa857610100808354040283529160200191610ad1565b820191905f5260205f20905b815481529060010190602001808311610ab457829003601f168201915b50505091835250506002820154602082015260039091015460ff8082161515604084015261010090910416151560609091015292915050565b5f8181526006602081815260408084208151610180810183528154815260018201546001600160a01b03908116948201949094526002820154909316918301919091526003810154606083015260048101546080830152600581015460a08301528083015460c0830152600781015460e083015260088101546101008301526009810154849361012084019160ff1690811115610ba957610ba9612f45565b6006811115610bba57610bba612f45565b81526020016009820160019054906101000a900460ff166003811115610be257610be2612f45565b6003811115610bf357610bf3612f45565b8152600a919091015460209091015290505f8161012001516006811115610c1c57610c1c612f45565b148015610c2c57508060e0015142105b9392505050565b5f610c3c612914565b6001600160a01b0382165f9081526008602052604090205460ff16610c9c5760405162461bcd60e51b815260206004820152601660248201527510dd5c9c995b98de481b9bdd081cdd5c1c1bdc9d195960521b604482015260640161075e565b6002546040516331a9108f60e11b81526004810185905233916001600160a01b031690636352211e90602401602060405180830381865afa158015610ce3573d5f803e3d5ffd5b505050506040513d601f19601f82011682018060405250810190610d07919061328c565b6001600160a01b031614610d4d5760405162461bcd60e51b815260206004820152600d60248201526c2737ba1027232a1037bbb732b960991b604482015260640161075e565b6002546040516304d1141d60e11b8152600481018590525f916001600160a01b0316906309a2283a9060240161014060405180830381865afa158015610d95573d5f803e3d5ffd5b505050506040513d601f19601f82011682018060405250810190610db991906132fe565b9050806101200151610e025760405162461bcd60e51b8152602060048201526012602482015271496e766f696365206e6f742061637469766560701b604482015260640161075e565b600381608001516003811115610e1a57610e1a612f45565b03610e595760405162461bcd60e51b815260206004820152600f60248201526e151a595c8811081c995a9958dd1959608a1b604482015260640161075e565b60025460808201516040516347590a7360e01b81525f926001600160a01b0316916347590a7391610e8d9190600401613393565b602060405180830381865afa158015610ea8573d5f803e3d5ffd5b505050506040513d601f19601f82011682018060405250810190610ecc91906133a1565b90505f6064828460600151610ee1919061319c565b610eeb91906131b3565b60025460808501516040516329aa507160e11b81529293505f926001600160a01b0390921691635354a0e291610f2391600401613393565b602060405180830381865afa158015610f3e573d5f803e3d5ffd5b505050506040513d601f19601f82011682018060405250810190610f6291906133a1565b90505f612710610f7360648561319c565b610f7d91906131b3565b90505f610f8a82856131d2565b6001600160a01b0389165f908152600c6020526040902054909150811115610fed5760405162461bcd60e51b8152602060048201526016602482015275496e73756666696369656e74206c697175696469747960501b604482015260640161075e565b6002546003546040516323b872dd60e01b81523360048201526001600160a01b039182166024820152604481018c90529116906323b872dd906064015f604051808303815f87803b158015611040575f80fd5b505af1158015611052573d5f803e3d5ffd5b505050505f60055f8154611065906133b8565b91905081905590506040518061018001604052808b8152602001336001600160a01b031681526020018a6001600160a01b031681526020018681526020018581526020018860400151815260200142815260200162015180426110c891906131e5565b81526020015f81526020015f60068111156110e5576110e5612f45565b81526020018860800151600381111561110057611100612f45565b8152602001606461111260c88861319c565b61111c91906131b3565b90525f828152600660208181526040928390208451815590840151600180830180546001600160a01b039384166001600160a01b03199182161790915594860151600284018054919093169516949094179055606084015160038201556080840151600482015560a0840151600582015560c08401518183015560e08401516007820155610100840151600882015561012084015160098201805492949193909260ff1916919084908111156111d4576111d4612f45565b021790555061014082015160098201805461ff0019166101008360038111156111ff576111ff612f45565b02179055506101609190910151600a909101556003546040516328aa15a160e11b8152600481018c9052336024820152604481018390526001600160a01b03909116906351542b42906064015f604051808303815f87803b158015611262575f80fd5b505af1158015611274573d5f803e3d5ffd5b505050506001600160a01b0389165f908152600c60205260408120805484929061129f9084906131d2565b909155505f90506127106112b56101f48661319c565b6112bf91906131b3565b6001600160a01b038b165f908152600d60205260408120805492935083929091906112eb9084906131e5565b92505081905550336001600160a01b03168b837fe5f9801052be4e659241b2d2beec6707af3f50c39d4a3d1c5f7db98c140cc06e8d8a8d604001518e6080015160405161133b94939291906133d0565b60405180910390a4896001600160a01b03167fc836a3675c299395211b3dc37e2442058318a4ca5774370b1fe978552ba544a68260405161137e91815260200190565b60405180910390a25096505050505050506107ba60018055565b5f8181526006602081815260408084208151610180810183528154815260018201546001600160a01b03908116948201949094526002820154909316918301919091526003810154606083015260048101546080830152600581015460a08301528083015460c0830152600781015460e083015260088101546101008301526009810154849361012084019160ff169081111561143757611437612f45565b600681111561144857611448612f45565b81526020016009820160019054906101000a900460ff16600381111561147057611470612f45565b600381111561148157611481612f45565b8152602001600a8201548152505090505f8160c0015142116114a3575f6114b2565b60c08201516114b290426131d2565b90505f8190505f8360a001514211156114fd575f8460a00151426114d691906131d2565b9050838110156114f4576114ea81856131d2565b92508091506114fb565b5f92508391505b505b5f61150e6301e1338061271061319c565b8386608001518760600151611523919061319c565b61152d919061319c565b61153791906131b3565b90505f8086610160015111611550578560800151611557565b8561016001515b90505f61156a6301e1338061271061319c565b8483896060015161157b919061319c565b611585919061319c565b61158f91906131b3565b9050808388606001516115a291906131e5565b6115ac91906131e5565b9998505050505050505050565b6060600980548060200260200160405190810160405280929190818152602001828054801561160f57602002820191905f5260205f20905b81546001600160a01b031681526001909101906020018083116115f1575b5050505050905090565b5f828152602081905260409020600101546116338161290a565b61163d838361293e565b50505050565b6001600160a01b038116331461166c5760405163334bd91960e11b815260040160405180910390fd5b61167682826129cd565b505050565b611683612914565b5f81815260066020526040812090600982015460ff1660068111156116aa576116aa612f45565b146116e55760405162461bcd60e51b815260206004820152600b60248201526a4e6f742070656e64696e6760a81b604482015260640161075e565b80600701544210156117395760405162461bcd60e51b815260206004820152601760248201527f4368616c6c656e676520706572696f6420616374697665000000000000000000604482015260640161075e565b60098101805460ff1916600117905560038101545f906127109061175f9060649061319c565b61176991906131b3565b90505f81836003015461177c91906131d2565b600184015460028501549192506117a0916001600160a01b03908116911683612a36565b837f6770e6ea1d35d168b372dbf1d1921d960b3bd04707ff36914a8e6f12d85ee779426040516117d291815260200190565b60405180910390a25050506117e660018055565b50565b6117f1612914565b6001600160a01b0382165f9081526008602052604090205460ff166118515760405162461bcd60e51b815260206004820152601660248201527510dd5c9c995b98de481b9bdd081cdd5c1c1bdc9d195960521b604482015260640161075e565b5f811161189a5760405162461bcd60e51b8152602060048201526017602482015276416d6f756e74206d75737420626520706f73697469766560481b604482015260640161075e565b6118af6001600160a01b038316333084612a95565b335f908152600a602090815260408083206001600160a01b0386168452909152812080548392906118e19084906131e5565b90915550506001600160a01b0382165f908152600b60205260408120805483929061190d9084906131e5565b90915550506001600160a01b0382165f908152600c6020526040812080548392906119399084906131e5565b90915550506040518181526001600160a01b0383169033907f8752a472e571a816aea92eec8dae9baf628e840f4929fbcc2d155e6233ff68a7906020015b60405180910390a361198860018055565b5050565b611994612c6a565b5f828152600660208181526040928390208351610180810185528154815260018201546001600160a01b03908116938201939093526002820154909216938201939093526003830154606082015260048301546080820152600583015460a08201528282015460c0820152600783015460e08201526008830154610100820152600983015490929161012084019160ff1690811115611a3557611a35612f45565b6006811115611a4657611a46612f45565b81526020016009820160019054906101000a900460ff166003811115611a6e57611a6e612f45565b6003811115611a7f57611a7f612f45565b8152602001600a820154815250509050919050565b5f8051602061357e833981519152611aab8161290a565b5f8281526006602052604090206002600982015460ff166006811115611ad357611ad3612f45565b14611b0e5760405162461bcd60e51b815260206004820152600b60248201526a4e6f74206f76657264756560a81b604482015260640161075e565b6005810154611b2090621275006131e5565b4211611b645760405162461bcd60e51b81526020600482015260136024820152724e6f742031342064617973206f76657264756560681b604482015260640161075e565b60098101805460ff1916600317905560405142815283907ff5c2e2ff5a0aa88c6e9352be55b58e2c44042366ea1a2e7a63b3b8ad3ef36c49906020015b60405180910390a2505050565b5f611bb88161290a565b6001600160a01b038216611c015760405162461bcd60e51b815260206004820152601060248201526f496e76616c69642063757272656e637960801b604482015260640161075e565b6001600160a01b0382165f9081526008602052604090205460ff1615611c5d5760405162461bcd60e51b8152602060048201526011602482015270105b1c9958591e481cdd5c1c1bdc9d1959607a1b604482015260640161075e565b6001600160a01b0382165f81815260086020526040808220805460ff1916600190811790915560098054918201815583527f6e1540171b6c0c960b71a7020d9f60077f6af931a8bbf590da0223dacf75c7af0180546001600160a01b03191684179055517fe0390a89516146ccfb796a9fbfc3f7646282194c554d05020484599ee992dd5a9190a25050565b60076020525f9081526040902080546001820180546001600160a01b039092169291611d1490613244565b80601f0160208091040260200160405190810160405280929190818152602001828054611d4090613244565b8015611d8b5780601f10611d6257610100808354040283529160200191611d8b565b820191905f5260205f20905b815481529060010190602001808311611d6e57829003601f168201915b50505050600283015460039093015491929160ff80821692506101009091041685565b5f918252602082815260408084206001600160a01b0393909316845291905290205460ff1690565b5f8051602061357e833981519152611ded8161290a565b5f8281526006602052604090206003600982015460ff166006811115611e1557611e15612f45565b14611e525760405162461bcd60e51b815260206004820152600d60248201526c139bdd08191959985d5b1d1959609a1b604482015260640161075e565b6004546001600160a01b0316611e9f5760405162461bcd60e51b8152602060048201526012602482015271131a5c5d5a59185d1bdc881b9bdd081cd95d60721b604482015260640161075e565b60098101805460ff1916600490811790915560035482548254604051631a830fe960e31b815293840191909152602483018690526001600160a01b039081166044840152169063d4187f48906064015f604051808303815f87803b158015611f05575f80fd5b505af1158015611f17573d5f803e3d5ffd5b50505050827f83aaaf962df73d321a429ab79cb614c268b4d2118ae9f104034f9cbe4b4f854042604051611ba191815260200190565b5f611f578161290a565b6001600160a01b0382165f9081526008602052604090205460ff16611fae5760405162461bcd60e51b815260206004820152600d60248201526c139bdd081cdd5c1c1bdc9d1959609a1b604482015260640161075e565b6001600160a01b0382165f908152600b6020526040902054156120025760405162461bcd60e51b815260206004820152600c60248201526b486173206465706f7369747360a01b604482015260640161075e565b6001600160a01b0382165f908152600860205260408120805460ff191690555b60095481101561212057826001600160a01b031660098281548110612049576120496133fb565b5f918252602090912001546001600160a01b03160361210e5760098054612072906001906131d2565b81548110612082576120826133fb565b5f91825260209091200154600980546001600160a01b0390921691839081106120ad576120ad6133fb565b905f5260205f20015f6101000a8154816001600160a01b0302191690836001600160a01b0316021790555060098054806120e9576120e961340f565b5f8281526020902081015f1990810180546001600160a01b0319169055019055612120565b80612118816133b8565b915050612022565b506040516001600160a01b038316907fa40d69111be14f29022626d38310e47cc2d7f4cb728961509c2f65a4bee08c5b905f90a25050565b5f828152602081905260409020600101546121728161290a565b61163d83836129cd565b612184612914565b5f8281526006602052604090206001600982015460ff1660068111156121ac576121ac612f45565b14806121d057506002600982015460ff1660068111156121ce576121ce612f45565b145b61221c5760405162461bcd60e51b815260206004820152601760248201527f4c6f616e206e6f74206163746976652f6f766572647565000000000000000000604482015260640161075e565b5f82116122655760405162461bcd60e51b8152602060048201526017602482015276416d6f756e74206d75737420626520706f73697469766560481b604482015260640161075e565b5f61226f84611398565b90505f82600801548261228291906131d2565b90505f8185116122925784612294565b815b60028501549091506122b1906001600160a01b0316333084612a95565b80846008015f8282546122c491906131e5565b909155505060028401546001600160a01b03165f908152600c6020526040812080548392906122f49084906131e5565b90915550506008840154831180159061237a5760098501805460ff191660051790556003548554604051630698a62160e01b81526004810191909152602481018990526001600160a01b0390911690630698a621906044015f604051808303815f87803b158015612363575f80fd5b505af1158015612375573d5f803e3d5ffd5b505050505b60088501546040805184815260208101929092528215159082015287907f46ce28e214e5513a784d92f34b97d65ad299c26403d8336d6f3881ddfd411e689060600160405180910390a2505050505061198860018055565b6123da612914565b5f83815260066020526040812090600982015460ff16600681111561240157612401612f45565b146124465760405162461bcd60e51b81526020600482015260156024820152744e6f7420696e2070656e64696e672073746174757360581b604482015260640161075e565b806007015442106124925760405162461bcd60e51b815260206004820152601660248201527510da185b1b195b99d9481c195c9a5bd908195b99195960521b604482015260640161075e565b816124d15760405162461bcd60e51b815260206004820152600f60248201526e1499585cdbdb881c995c5d5a5c9959608a1b604482015260640161075e565b60098101805460ff191660061790556040805160a08101825233815281516020601f86018190048102820181019093528481529091808301919086908690819084018382808284375f920182905250938552505042602080850191909152604080850184905260609094018390528883526007815292909120835181546001600160a01b0319166001600160a01b039091161781559183015160018301915061257a9082613470565b50604082810151600283015560608301516003909201805460809094015115156101000261ff00199315159390931661ffff19909416939093179190911790915551339085907f866a9d84c5ee5e2aab4f3d91855ecb1b74a608bac28cde6b869488c514c70886906125ef908790879061352c565b60405180910390a35061167660018055565b5f8051602061357e8339815191526126188161290a565b5f8281526006602052604090206001600982015460ff16600681111561264057612640612f45565b1461267a5760405162461bcd60e51b815260206004820152600a6024820152694e6f742061637469766560b01b604482015260640161075e565b806005015442116126bf5760405162461bcd60e51b815260206004820152600f60248201526e139bdd081bdd995c991d59481e595d608a1b604482015260640161075e565b60098101805460ff1916600217905560058101545f9062015180906126e490426131d2565b6126ee91906131b3565b9050837fe7387e94fdf9bfae5336ec3cf81c8d6808f738c626d346033263558ca7b8df9d8260405161272291815260200190565b60405180910390a250505050565b6009818154811061273f575f80fd5b5f918252602090912001546001600160a01b0316905081565b612760612914565b335f908152600a602090815260408083206001600160a01b03861684529091529020548111156127c95760405162461bcd60e51b8152602060048201526014602482015273496e73756666696369656e742062616c616e636560601b604482015260640161075e565b6001600160a01b0382165f908152600c60205260409020548111156128295760405162461bcd60e51b8152602060048201526016602482015275496e73756666696369656e74206c697175696469747960501b604482015260640161075e565b335f908152600a602090815260408083206001600160a01b03861684529091528120805483929061285b9084906131d2565b90915550506001600160a01b0382165f908152600b6020526040812080548392906128879084906131d2565b90915550506001600160a01b0382165f908152600c6020526040812080548392906128b39084906131d2565b909155506128cd90506001600160a01b0383163383612a36565b6040518181526001600160a01b0383169033907fd1c19fbcd4551a5edfb66d43d2e337c04837afda3482b42bdf569a8fccdae5fb90602001611977565b6117e68133612ace565b60026001540361293757604051633ee5aeb560e01b815260040160405180910390fd5b6002600155565b5f6129498383611dae565b6129c6575f838152602081815260408083206001600160a01b03861684529091529020805460ff1916600117905561297e3390565b6001600160a01b0316826001600160a01b0316847f2f8788117e7eff1d82e926ec794901d17c78024a50270940304540a733656f0d60405160405180910390a45060016107ba565b505f6107ba565b5f6129d88383611dae565b156129c6575f838152602081815260408083206001600160a01b0386168085529252808320805460ff1916905551339286917ff6391f5c32d9c69d2a47ea670b442974b53935d1edc7fd64eb21e047a839171b9190a45060016107ba565b6040516001600160a01b0383811660248301526044820183905261167691859182169063a9059cbb906064015b604051602081830303815290604052915060e01b6020820180516001600160e01b038381831617835250505050612b07565b6040516001600160a01b03848116602483015283811660448301526064820183905261163d9186918216906323b872dd90608401612a63565b612ad88282611dae565b6119885760405163e2517d3f60e01b81526001600160a01b03821660048201526024810183905260440161075e565b5f612b1b6001600160a01b03841683612b68565b905080515f14158015612b3f575080806020019051810190612b3d9190613547565b155b1561167657604051635274afe760e01b81526001600160a01b038416600482015260240161075e565b6060610c2c83835f845f80856001600160a01b03168486604051612b8c9190613562565b5f6040518083038185875af1925050503d805f8114612bc6576040519150601f19603f3d011682016040523d82523d5f602084013e612bcb565b606091505b5091509150612bdb868383612be5565b9695505050505050565b606082612bfa57612bf582612c41565b610c2c565b8151158015612c1157506001600160a01b0384163b155b15612c3a57604051639996b31560e01b81526001600160a01b038516600482015260240161075e565b5080610c2c565b805115612c515780518082602001fd5b604051630a12f52160e11b815260040160405180910390fd5b6040518061018001604052805f81526020015f6001600160a01b031681526020015f6001600160a01b031681526020015f81526020015f81526020015f81526020015f81526020015f81526020015f81526020015f6006811115612cd057612cd0612f45565b81526020015f81526020015f81525090565b6001600160a01b03811681146117e6575f80fd5b5f60208284031215612d06575f80fd5b8135610c2c81612ce2565b5f60208284031215612d21575f80fd5b81356001600160e01b031981168114610c2c575f80fd5b80151581146117e6575f80fd5b5f8083601f840112612d55575f80fd5b50813567ffffffffffffffff811115612d6c575f80fd5b602083019150836020828501011115612d83575f80fd5b9250929050565b5f805f8060608587031215612d9d575f80fd5b843593506020850135612daf81612d38565b9250604085013567ffffffffffffffff811115612dca575f80fd5b612dd687828801612d45565b95989497509550505050565b5f60208284031215612df2575f80fd5b5035919050565b5f5b83811015612e13578181015183820152602001612dfb565b50505f910152565b5f8151808452612e32816020860160208601612df9565b601f01601f19169290920160200192915050565b602080825282516001600160a01b03168282015282015160a060408301525f90612e7360c0840182612e1b565b9050604084015160608401526060840151151560808401526080840151151560a08401528091505092915050565b5f8060408385031215612eb2575f80fd5b823591506020830135612ec481612ce2565b809150509250929050565b602080825282518282018190525f9190848201906040850190845b81811015612f0f5783516001600160a01b031683529284019291840191600101612eea565b50909695505050505050565b5f8060408385031215612f2c575f80fd5b8235612f3781612ce2565b946020939093013593505050565b634e487b7160e01b5f52602160045260245ffd5b60078110612f6957612f69612f45565b9052565b60048110612f6957612f69612f45565b81518152602080830151610180830191612fa1908401826001600160a01b03169052565b506040830151612fbc60408401826001600160a01b03169052565b50606083015160608301526080830151608083015260a083015160a083015260c083015160c083015260e083015160e08301526101008084015181840152506101208084015161300e82850182612f59565b50506101408084015161302382850182612f6d565b505061016092830151919092015290565b6001600160a01b038616815260a0602082018190525f9061305790830187612e1b565b6040830195909552509115156060830152151560809091015292915050565b5f8060408385031215613087575f80fd5b823561309281612ce2565b91506020830135612ec481612ce2565b5f80604083850312156130b3575f80fd5b50508035926020909101359150565b5f805f604084860312156130d4575f80fd5b83359250602084013567ffffffffffffffff8111156130f1575f80fd5b6130fd86828701612d45565b9497909650939450505050565b8c81526001600160a01b038c811660208301528b166040820152606081018a90526080810189905260a0810188905260c0810187905260e0810186905261010081018590526101808101613162610120830186612f59565b613170610140830185612f6d565b826101608301529d9c50505050505050505050505050565b634e487b7160e01b5f52601160045260245ffd5b80820281158282048414176107ba576107ba613188565b5f826131cd57634e487b7160e01b5f52601260045260245ffd5b500490565b818103818111156107ba576107ba613188565b808201808211156107ba576107ba613188565b81835281816020850137505f828201602090810191909152601f909101601f19169091010190565b8315158152604060208201525f61323b6040830184866131f8565b95945050505050565b600181811c9082168061325857607f821691505b60208210810361327657634e487b7160e01b5f52602260045260245ffd5b50919050565b805161328781612ce2565b919050565b5f6020828403121561329c575f80fd5b8151610c2c81612ce2565b634e487b7160e01b5f52604160045260245ffd5b604051610140810167ffffffffffffffff811182821017156132df576132df6132a7565b60405290565b805160048110613287575f80fd5b805161328781612d38565b5f610140828403121561330f575f80fd5b6133176132bb565b82518152602083015160208201526040830151604082015260608301516060820152613345608084016132e5565b608082015260a083015160a082015260c083015160c082015261336a60e0840161327c565b60e082015261010083810151908201526101206133888185016132f3565b908201529392505050565b602081016107ba8284612f6d565b5f602082840312156133b1575f80fd5b5051919050565b5f600182016133c9576133c9613188565b5060010190565b6001600160a01b038516815260208101849052604081018390526080810161323b6060830184612f6d565b634e487b7160e01b5f52603260045260245ffd5b634e487b7160e01b5f52603160045260245ffd5b601f821115611676575f81815260208120601f850160051c810160208610156134495750805b601f850160051c820191505b8181101561346857828155600101613455565b505050505050565b815167ffffffffffffffff81111561348a5761348a6132a7565b61349e816134988454613244565b84613423565b602080601f8311600181146134d1575f84156134ba5750858301515b5f19600386901b1c1916600185901b178555613468565b5f85815260208120601f198616915b828110156134ff578886015182559484019460019091019084016134e0565b508582101561351c57878501515f19600388901b60f8161c191681555b5050505050600190811b01905550565b602081525f61353f6020830184866131f8565b949350505050565b5f60208284031215613557575f80fd5b8151610c2c81612d38565b5f8251613573818460208701612df9565b919091019291505056fefc8737ab85eb45125971625a9ebdb75cc78e01d5c1fa80c4c6e5203f47bc4faba2646970667358221220c8e5a5ada9efba7699d34eb9b1ec5054afb4d64be3157be387aca79b3725c7f664736f6c63430008140033",
    "linkReferences": {}
  },
  "methodIdentifiers": {
    "BPS_DENOMINATOR()": "e1a45218",
    "CHALLENGE_PERIOD()": "c3a079ed",
    "DEFAULT_ADMIN_ROLE()": "a217fddf",
    "INSURANCE_FEE_BPS()": "af759740",
    "KEEPER_ROLE()": "364bc15a",
    "ORACLE_ROLE()": "07e2cea5",
    "ORIGINATION_FEE_BPS()": "5a866fdc",
    "PENALTY_RATE_MULTIPLIER()": "a74b637c",
    "SECONDS_PER_YEAR()": "e6a69ab8",
    "activateLoan(uint256)": "4644004d",
    "addCurrency(address)": "8ab234b6",
    "availableLiquidity(address)": "181f37c8",
    "calculateTotalOwed(uint256)": "29194ee3",
    "challengeLoan(uint256,string)": "dcfa2bb6",
    "challenges(uint256)": "8f1d3776",
    "createLoan(uint256,address)": "272e848e",
    "currencyList(uint256)": "f0d053dc",
    "deposit(address,uint256)": "47e7ef24",
    "escrow()": "e2fdcc17",
    "getChallenge(uint256)": "1bdd4b74",
    "getLPBalance(address,address)": "a8f8278e",
    "getLoan(uint256)": "504006ca",
    "getRoleAdmin(bytes32)": "248a9ca3",
    "getSupportedCurrencies()": "2ce75863",
    "grantRole(bytes32,address)": "2f2ff15d",
    "hasRole(bytes32,address)": "91d14854",
    "insuranceFund(address)": "fc32298a",
    "invoiceNFT()": "4bb6f06d",
    "isInChallengePeriod(uint256)": "26b3e9b1",
    "liquidator()": "4046ebae",
    "loans(uint256)": "e1ec3c68",
    "lpDeposits(address,address)": "cd31a9e3",
    "markDefaulted(uint256)": "73216450",
    "markOverdue(uint256)": "ec660a80",
    "removeCurrency(address)": "c5d3a107",
    "renounceRole(bytes32,address)": "36568abe",
    "repay(uint256,uint256)": "d8aed145",
    "resolveChallenge(uint256,bool,string)": "1baa6a5c",
    "revokeRole(bytes32,address)": "d547741f",
    "setLiquidator(address)": "01c76f81",
    "startLiquidation(uint256)": "980a8bd9",
    "supportedCurrencies(address)": "ace2bed5",
    "supportsInterface(bytes4)": "01ffc9a7",
    "totalDeposits(address)": "e9403256",
    "withdraw(address,uint256)": "f3fef3a3"
  },
  "id": 62
}