{
  "abi": [
    {
      "type": "constructor",
      "inputs": [
        {
          "name": "_lendingPool",
          "type": "address",
          "internalType": "address"
        }
      ],
      "stateMutability": "nonpayable"
    },
    {
      "type": "function",
      "name": "CHALLENGE_PERIOD",
      "inputs": [],
      "outputs": [
        {
          "name": "",
          "type": "uint256",
          "internalType": "uint256"
        }
      ],
      "stateMutability": "view"
    },
    {
      "type": "function",
      "name": "DEFAULT_ADMIN_ROLE",
      "inputs": [],
      "outputs": [
        {
          "name": "",
          "type": "bytes32",
          "internalType": "bytes32"
        }
      ],
      "stateMutability": "view"
    },
    {
      "type": "function",
      "name": "ORACLE_NODE_ROLE",
      "inputs": [],
      "outputs": [
        {
          "name": "",
          "type": "bytes32",
          "internalType": "bytes32"
        }
      ],
      "stateMutability": "view"
    },
    {
      "type": "function",
      "name": "REQUIRED_CONFIRMATIONS",
      "inputs": [],
      "outputs": [
        {
          "name": "",
          "type": "uint256",
          "internalType": "uint256"
        }
      ],
      "stateMutability": "view"
    },
    {
      "type": "function",
      "name": "addOracleNode",
      "inputs": [
        {
          "name": "node",
          "type": "address",
          "internalType": "address"
        }
      ],
      "outputs": [],
      "stateMutability": "nonpayable"
    },
    {
      "type": "function",
      "name": "challengePayment",
      "inputs": [
        {
          "name": "paymentId",
          "type": "uint256",
          "internalType": "uint256"
        },
        {
          "name": "reason",
          "type": "string",
          "internalType": "string"
        }
      ],
      "outputs": [],
      "stateMutability": "nonpayable"
    },
    {
      "type": "function",
      "name": "confirmPayment",
      "inputs": [
        {
          "name": "paymentId",
          "type": "uint256",
          "internalType": "uint256"
        }
      ],
      "outputs": [],
      "stateMutability": "nonpayable"
    },
    {
      "type": "function",
      "name": "confirmations",
      "inputs": [
        {
          "name": "",
          "type": "uint256",
          "internalType": "uint256"
        },
        {
          "name": "",
          "type": "address",
          "internalType": "address"
        }
      ],
      "outputs": [
        {
          "name": "",
          "type": "bool",
          "internalType": "bool"
        }
      ],
      "stateMutability": "view"
    },
    {
      "type": "function",
      "name": "executePayment",
      "inputs": [
        {
          "name": "paymentId",
          "type": "uint256",
          "internalType": "uint256"
        }
      ],
      "outputs": [],
      "stateMutability": "nonpayable"
    },
    {
      "type": "function",
      "name": "getOracleNodeCount",
      "inputs": [],
      "outputs": [
        {
          "name": "",
          "type": "uint256",
          "internalType": "uint256"
        }
      ],
      "stateMutability": "view"
    },
    {
      "type": "function",
      "name": "getOracleNodes",
      "inputs": [],
      "outputs": [
        {
          "name": "",
          "type": "address[]",
          "internalType": "address[]"
        }
      ],
      "stateMutability": "view"
    },
    {
      "type": "function",
      "name": "getPayment",
      "inputs": [
        {
          "name": "paymentId",
          "type": "uint256",
          "internalType": "uint256"
        }
      ],
      "outputs": [
        {
          "name": "",
          "type": "tuple",
          "internalType": "struct PaymentOracle.Payment",
          "components": [
            {
              "name": "loanId",
              "type": "uint256",
              "internalType": "uint256"
            },
            {
              "name": "amount",
              "type": "uint256",
              "internalType": "uint256"
            },
            {
              "name": "proofHash",
              "type": "bytes32",
              "internalType": "bytes32"
            },
            {
              "name": "submitter",
              "type": "address",
              "internalType": "address"
            },
            {
              "name": "submittedAt",
              "type": "uint256",
              "internalType": "uint256"
            },
            {
              "name": "confirmationCount",
              "type": "uint256",
              "internalType": "uint256"
            },
            {
              "name": "challengeEndTime",
              "type": "uint256",
              "internalType": "uint256"
            },
            {
              "name": "status",
              "type": "uint8",
              "internalType": "enum PaymentOracle.PaymentStatus"
            }
          ]
        }
      ],
      "stateMutability": "view"
    },
    {
      "type": "function",
      "name": "getPaymentChallenge",
      "inputs": [
        {
          "name": "paymentId",
          "type": "uint256",
          "internalType": "uint256"
        }
      ],
      "outputs": [
        {
          "name": "",
          "type": "tuple",
          "internalType": "struct PaymentOracle.PaymentChallenge",
          "components": [
            {
              "name": "challenger",
              "type": "address",
              "internalType": "address"
            },
            {
              "name": "reason",
              "type": "string",
              "internalType": "string"
            },
            {
              "name": "createdAt",
              "type": "uint256",
              "internalType": "uint256"
            },
            {
              "name": "resolved",
              "type": "bool",
              "internalType": "bool"
            }
          ]
        }
      ],
      "stateMutability": "view"
    },
    {
      "type": "function",
      "name": "getRoleAdmin",
      "inputs": [
        {
          "name": "role",
          "type": "bytes32",
          "internalType": "bytes32"
        }
      ],
      "outputs": [
        {
          "name": "",
          "type": "bytes32",
          "internalType": "bytes32"
        }
      ],
      "stateMutability": "view"
    },
    {
      "type": "function",
      "name": "grantRole",
      "inputs": [
        {
          "name": "role",
          "type": "bytes32",
          "internalType": "bytes32"
        },
        {
          "name": "account",
          "type": "address",
          "internalType": "address"
        }
      ],
      "outputs": [],
      "stateMutability": "nonpayable"
    },
    {
      "type": "function",
      "name": "hasConfirmed",
      "inputs": [
        {
          "name": "paymentId",
          "type": "uint256",
          "internalType": "uint256"
        },
        {
          "name": "oracle",
          "type": "address",
          "internalType": "address"
        }
      ],
      "outputs": [
        {
          "name": "",
          "type": "bool",
          "internalType": "bool"
        }
      ],
      "stateMutability": "view"
    },
    {
      "type": "function",
      "name": "hasRole",
      "inputs": [
        {
          "name": "role",
          "type": "bytes32",
          "internalType": "bytes32"
        },
        {
          "name": "account",
          "type": "address",
          "internalType": "address"
        }
      ],
      "outputs": [
        {
          "name": "",
          "type": "bool",
          "internalType": "bool"
        }
      ],
      "stateMutability": "view"
    },
    {
      "type": "function",
      "name": "isInChallengePeriod",
      "inputs": [
        {
          "name": "paymentId",
          "type": "uint256",
          "internalType": "uint256"
        }
      ],
      "outputs": [
        {
          "name": "",
          "type": "bool",
          "internalType": "bool"
        }
      ],
      "stateMutability": "view"
    },
    {
      "type": "function",
      "name": "lendingPool",
      "inputs": [],
      "outputs": [
        {
          "name": "",
          "type": "address",
          "internalType": "contract LendingPool"
        }
      ],
      "stateMutability": "view"
    },
    {
      "type": "function",
      "name": "oracleNodes",
      "inputs": [
        {
          "name": "",
          "type": "uint256",
          "internalType": "uint256"
        }
      ],
      "outputs": [
        {
          "name": "",
          "type": "address",
          "internalType": "address"
        }
      ],
      "stateMutability": "view"
    },
    {
      "type": "function",
      "name": "paymentChallenges",
      "inputs": [
        {
          "name": "",
          "type": "uint256",
          "internalType": "uint256"
        }
      ],
      "outputs": [
        {
          "name": "challenger",
          "type": "address",
          "internalType": "address"
        },
        {
          "name": "reason",
          "type": "string",
          "internalType": "string"
        },
        {
          "name": "createdAt",
          "type": "uint256",
          "internalType": "uint256"
        },
        {
          "name": "resolved",
          "type": "bool",
          "internalType": "bool"
        }
      ],
      "stateMutability": "view"
    },
    {
      "type": "function",
      "name": "payments",
      "inputs": [
        {
          "name": "",
          "type": "uint256",
          "internalType": "uint256"
        }
      ],
      "outputs": [
        {
          "name": "loanId",
          "type": "uint256",
          "internalType": "uint256"
        },
        {
          "name": "amount",
          "type": "uint256",
          "internalType": "uint256"
        },
        {
          "name": "proofHash",
          "type": "bytes32",
          "internalType": "bytes32"
        },
        {
          "name": "submitter",
          "type": "address",
          "internalType": "address"
        },
        {
          "name": "submittedAt",
          "type": "uint256",
          "internalType": "uint256"
        },
        {
          "name": "confirmationCount",
          "type": "uint256",
          "internalType": "uint256"
        },
        {
          "name": "challengeEndTime",
          "type": "uint256",
          "internalType": "uint256"
        },
        {
          "name": "status",
          "type": "uint8",
          "internalType": "enum PaymentOracle.PaymentStatus"
        }
      ],
      "stateMutability": "view"
    },
    {
      "type": "function",
      "name": "removeOracleNode",
      "inputs": [
        {
          "name": "node",
          "type": "address",
          "internalType": "address"
        }
      ],
      "outputs": [],
      "stateMutability": "nonpayable"
    },
    {
      "type": "function",
      "name": "renounceRole",
      "inputs": [
        {
          "name": "role",
          "type": "bytes32",
          "internalType": "bytes32"
        },
        {
          "name": "callerConfirmation",
          "type": "address",
          "internalType": "address"
        }
      ],
      "outputs": [],
      "stateMutability": "nonpayable"
    },
    {
      "type": "function",
      "name": "resolvePaymentChallenge",
      "inputs": [
        {
          "name": "paymentId",
          "type": "uint256",
          "internalType": "uint256"
        },
        {
          "name": "accepted",
          "type": "bool",
          "internalType": "bool"
        },
        {
          "name": "resolution",
          "type": "string",
          "internalType": "string"
        }
      ],
      "outputs": [],
      "stateMutability": "nonpayable"
    },
    {
      "type": "function",
      "name": "revokeRole",
      "inputs": [
        {
          "name": "role",
          "type": "bytes32",
          "internalType": "bytes32"
        },
        {
          "name": "account",
          "type": "address",
          "internalType": "address"
        }
      ],
      "outputs": [],
      "stateMutability": "nonpayable"
    },
    {
      "type": "function",
      "name": "submitPayment",
      "inputs": [
        {
          "name": "loanId",
          "type": "uint256",
          "internalType": "uint256"
        },
        {
          "name": "amount",
          "type": "uint256",
          "internalType": "uint256"
        },
        {
          "name": "proofHash",
          "type": "bytes32",
          "internalType": "bytes32"
        }
      ],
      "outputs": [
        {
          "name": "",
          "type": "uint256",
          "internalType": "uint256"
        }
      ],
      "stateMutability": "nonpayable"
    },
    {
      "type": "function",
      "name": "supportsInterface",
      "inputs": [
        {
          "name": "interfaceId",
          "type": "bytes4",
          "internalType": "bytes4"
        }
      ],
      "outputs": [
        {
          "name": "",
          "type": "bool",
          "internalType": "bool"
        }
      ],
      "stateMutability": "view"
    },
    {
      "type": "event",
      "name": "OracleNodeAdded",
      "inputs": [
        {
          "name": "node",
          "type": "address",
          "indexed": true,
          "internalType": "address"
        }
      ],
      "anonymous": false
    },
    {
      "type": "event",
      "name": "OracleNodeRemoved",
      "inputs": [
        {
          "name": "node",
          "type": "address",
          "indexed": true,
          "internalType": "address"
        }
      ],
      "anonymous": false
    },
    {
      "type": "event",
      "name": "PaymentChallengeResolved",
      "inputs": [
        {
          "name": "paymentId",
          "type": "uint256",
          "indexed": true,
          "internalType": "uint256"
        },
        {
          "name": "accepted",
          "type": "bool",
          "indexed": false,
          "internalType": "bool"
        },
        {
          "name": "resolution",
          "type": "string",
          "indexed": false,
          "internalType": "string"
        }
      ],
      "anonymous": false
    },
    {
      "type": "event",
      "name": "PaymentChallenged",
      "inputs": [
        {
          "name": "paymentId",
          "type": "uint256",
          "indexed": true,
          "internalType": "uint256"
        },
        {
          "name": "challenger",
          "type": "address",
          "indexed": true,
          "internalType": "address"
        },
        {
          "name": "reason",
          "type": "string",
          "indexed": false,
          "internalType": "string"
        }
      ],
      "anonymous": false
    },
    {
      "type": "event",
      "name": "PaymentConfirmed",
      "inputs": [
        {
          "name": "paymentId",
          "type": "uint256",
          "indexed": true,
          "internalType": "uint256"
        },
        {
          "name": "oracle",
          "type": "address",
          "indexed": true,
          "internalType": "address"
        },
        {
          "name": "confirmationCount",
          "type": "uint256",
          "indexed": false,
          "internalType": "uint256"
        }
      ],
      "anonymous": false
    },
    {
      "type": "event",
      "name": "PaymentExecuted",
      "inputs": [
        {
          "name": "paymentId",
          "type": "uint256",
          "indexed": true,
          "internalType": "uint256"
        },
        {
          "name": "loanId",
          "type": "uint256",
          "indexed": true,
          "internalType": "uint256"
        },
        {
          "name": "amount",
          "type": "uint256",
          "indexed": false,
          "internalType": "uint256"
        }
      ],
      "anonymous": false
    },
    {
      "type": "event",
      "name": "PaymentReadyForExecution",
      "inputs": [
        {
          "name": "paymentId",
          "type": "uint256",
          "indexed": true,
          "internalType": "uint256"
        },
        {
          "name": "challengeEndTime",
          "type": "uint256",
          "indexed": false,
          "internalType": "uint256"
        }
      ],
      "anonymous": false
    },
    {
      "type": "event",
      "name": "PaymentSubmitted",
      "inputs": [
        {
          "name": "paymentId",
          "type": "uint256",
          "indexed": true,
          "internalType": "uint256"
        },
        {
          "name": "loanId",
          "type": "uint256",
          "indexed": true,
          "internalType": "uint256"
        },
        {
          "name": "amount",
          "type": "uint256",
          "indexed": false,
          "internalType": "uint256"
        },
        {
          "name": "proofHash",
          "type": "bytes32",
          "indexed": false,
          "internalType": "bytes32"
        },
        {
          "name": "submitter",
          "type": "address",
          "indexed": false,
          "internalType": "address"
        }
      ],
      "anonymous": false
    },
    {
      "type": "event",
      "name": "RoleAdminChanged",
      "inputs": [
        {
          "name": "role",
          "type": "bytes32",
          "indexed": true,
          "internalType": "bytes32"
        },
        {
          "name": "previousAdminRole",
          "type": "bytes32",
          "indexed": true,
          "internalType": "bytes32"
        },
        {
          "name": "newAdminRole",
          "type": "bytes32",
          "indexed": true,
          "internalType": "bytes32"
        }
      ],
      "anonymous": false
    },
    {
      "type": "event",
      "name": "RoleGranted",
      "inputs": [
        {
          "name": "role",
          "type": "bytes32",
          "indexed": true,
          "internalType": "bytes32"
        },
        {
          "name": "account",
          "type": "address",
          "indexed": true,
          "internalType": "address"
        },
        {
          "name": "sender",
          "type": "address",
          "indexed": true,
          "internalType": "address"
        }
      ],
      "anonymous": false
    },
    {
      "type": "event",
      "name": "RoleRevoked",
      "inputs": [
        {
          "name": "role",
          "type": "bytes32",
          "indexed": true,
          "internalType": "bytes32"
        },
        {
          "name": "account",
          "type": "address",
          "indexed": true,
          "internalType": "address"
        },
        {
          "name": "sender",
          "type": "address",
          "indexed": true,
          "internalType": "address"
        }
      ],
      "anonymous": false
    },
    {
      "type": "error",
      "name": "AccessControlBadConfirmation",
      "inputs": []
    },
    {
      "type": "error",
      "name": "AccessControlUnauthorizedAccount",
      "inputs": [
        {
          "name": "account",
          "type": "address",
          "internalType": "address"
        },
        {
          "name": "neededRole",
          "type": "bytes32",
          "internalType": "bytes32"
        }
      ]
    },
    {
      "type": "error",
      "name": "AddressEmptyCode",
      "inputs": [
        {
          "name": "target",
          "type": "address",
          "internalType": "address"
        }
      ]
    },
    {
      "type": "error",
      "name": "AddressInsufficientBalance",
      "inputs": [
        {
          "name": "account",
          "type": "address",
          "internalType": "address"
        }
      ]
    },
    {
      "type": "error",
      "name": "FailedInnerCall",
      "inputs": []
    },
    {
      "type": "error",
      "name": "ReentrancyGuardReentrantCall",
      "inputs": []
    },
    {
      "type": "error",
      "name": "SafeERC20FailedOperation",
      "inputs": [
        {
          "name": "token",
          "type": "address",
          "internalType": "address"
        }
      ]
    }
  ],
  "bytecode": {
    "object": "0x608060405234801562000010575f80fd5b50604051620024e0380380620024e083398101604081905262000033916200016d565b600180556001600160a01b038116620000925760405162461bcd60e51b815260206004820152601460248201527f496e76616c6964206c656e64696e6720706f6f6c000000000000000000000000604482015260640160405180910390fd5b600280546001600160a01b0319166001600160a01b038316179055620000b95f33620000c1565b50506200019c565b5f828152602081815260408083206001600160a01b038516845290915281205460ff1662000164575f838152602081815260408083206001600160a01b03861684529091529020805460ff191660011790556200011b3390565b6001600160a01b0316826001600160a01b0316847f2f8788117e7eff1d82e926ec794901d17c78024a50270940304540a733656f0d60405160405180910390a450600162000167565b505f5b92915050565b5f602082840312156200017e575f80fd5b81516001600160a01b038116811462000195575f80fd5b9392505050565b61233680620001aa5f395ff3fe608060405234801561000f575f80fd5b50600436106101bb575f3560e01c8063876ca09f116100f3578063c3a079ed11610093578063da0d214e1161006e578063da0d214e14610464578063dd4c1b8d14610487578063f8baaaa41461049a578063fb462bd1146104ad575f80fd5b8063c3a079ed14610434578063d547741f1461043e578063d914e83d14610451575f80fd5b806394ccaa9f116100ce57806394ccaa9f146103f2578063a217fddf14610412578063a59a997314610419578063b71cce7d1461042c575f80fd5b8063876ca09f1461035957806387d817891461036c57806391d14854146103df575f80fd5b80633411c81c1161015e57806340fd10b31161013957806340fd10b3146103155780634de457da1461032a578063587d81271461033d57806375561da614610345575f80fd5b80633411c81c146102aa57806336568abe146102d757806336d2e6b8146102ea575f80fd5b8063248a9ca311610199578063248a9ca31461023457806326b3e9b1146102645780632f2ff15d146102775780633280a8361461028a575f80fd5b806301ffc9a7146101bf57806308aff933146101e7578063162a0cf81461021f575b5f80fd5b6101d26101cd366004611ba8565b6104c0565b60405190151581526020015b60405180910390f35b6101d26101f5366004611be3565b5f9182526006602090815260408084206001600160a01b0393909316845291905290205460ff1690565b61023261022d366004611c11565b6104f6565b005b610256610242366004611c11565b5f9081526020819052604090206001015490565b6040519081526020016101de565b6101d2610272366004611c11565b610738565b610232610285366004611be3565b610801565b61029d610298366004611c11565b61082b565b6040516101de9190611c5c565b6101d26102b8366004611be3565b600660209081525f928352604080842090915290825290205460ff1681565b6102326102e5366004611be3565b6108d3565b6102fd6102f8366004611c11565b61090b565b6040516001600160a01b0390911681526020016101de565b61031d610933565b6040516101de9190611cc5565b610232610338366004611d11565b610993565b610256600281565b6102565f805160206122e183398151915281565b610232610367366004611c11565b610aca565b6103cb61037a366004611c11565b600460208190525f9182526040909120805460018201546002830154600384015494840154600585015460068601546007909601549496939592946001600160a01b03909416939192909160ff1688565b6040516101de989796959493929190611d2c565b6101d26103ed366004611be3565b610b00565b610405610400366004611c11565b610b28565b6040516101de9190611dcd565b6102565f81565b6002546102fd906001600160a01b031681565b600754610256565b6102566201518081565b61023261044c366004611be3565b610c36565b61023261045f366004611e6e565b610c5a565b610477610472366004611c11565b610daf565b6040516101de9493929190611ec6565b610232610495366004611d11565b610e6b565b6102566104a8366004611f01565b611015565b6102326104bb366004611f2a565b611321565b5f6001600160e01b03198216637965db0b60e01b14806104f057506301ffc9a760e01b6001600160e01b03198316145b92915050565b6104fe611536565b5f8181526004602052604090206001600782015460ff16600481111561052657610526611c28565b146105685760405162461bcd60e51b815260206004820152600d60248201526c139bdd0818dbdb999a5c9b5959609a1b60448201526064015b60405180910390fd5b80600601544210156105bc5760405162461bcd60e51b815260206004820152601760248201527f4368616c6c656e676520706572696f6420616374697665000000000000000000604482015260640161055f565b60078101805460ff19166002908117909155548154604051632820036560e11b815260048101919091525f916001600160a01b03169063504006ca9060240161018060405180830381865afa158015610617573d5f803e3d5ffd5b505050506040513d601f19601f8201168201806040525081019061063b9190611fdc565b6040810151600184015491925090610661906001600160a01b0383169033903090611560565b6002546001840154610681916001600160a01b03848116929116906115c7565b6002548354600185015460405163d8aed14560e01b8152600481019290925260248201526001600160a01b039091169063d8aed145906044015f604051808303815f87803b1580156106d1575f80fd5b505af11580156106e3573d5f803e3d5ffd5b50505050825f0154847fb5287fd929180595909b1e43982aa47d5b64f7920ccf127ea155b7736cc42595856001015460405161072191815260200190565b60405180910390a350505061073560018055565b50565b5f8181526004602081815260408084208151610100810183528154815260018201549381019390935260028101549183019190915260038101546001600160a01b03166060830152808301546080830152600581015460a0830152600681015460c08301526007810154849360e084019160ff16908111156107bc576107bc611c28565b60048111156107cd576107cd611c28565b905250905060018160e0015160048111156107ea576107ea611c28565b1480156107fa57508060c0015142105b9392505050565b5f8281526020819052604090206001015461081b81611656565b6108258383611660565b50505050565b610833611b4f565b5f828152600460208181526040928390208351610100810185528154815260018201549281019290925260028101549382019390935260038301546001600160a01b03166060820152828201546080820152600583015460a0820152600683015460c0820152600783015490929160e084019160ff16908111156108b9576108b9611c28565b60048111156108ca576108ca611c28565b90525092915050565b6001600160a01b03811633146108fc5760405163334bd91960e11b815260040160405180910390fd5b61090682826116ef565b505050565b6007818154811061091a575f80fd5b5f918252602090912001546001600160a01b0316905081565b6060600780548060200260200160405190810160405280929190818152602001828054801561098957602002820191905f5260205f20905b81546001600160a01b0316815260019091019060200180831161096b575b5050505050905090565b5f61099d81611656565b6001600160a01b0382166109e55760405162461bcd60e51b815260206004820152600f60248201526e496e76616c6964206164647265737360881b604482015260640161055f565b6109fc5f805160206122e183398151915283610b00565b15610a3a5760405162461bcd60e51b815260206004820152600e60248201526d416c7265616479206f7261636c6560901b604482015260640161055f565b610a515f805160206122e183398151915283611660565b50600780546001810182555f9182527fa66cc928b5edb82af9bd49922954155ab7b0942694bea4ce44661d9a8736c6880180546001600160a01b0319166001600160a01b03851690811790915560405190917f02ae157eb68a658e8b92144d1c69a756da1cb64f1b5f341133a0ebc30ea0521191a25050565b5f805160206122e1833981519152610ae181611656565b610ae9611536565b610af38233611758565b610afc60018055565b5050565b5f918252602082815260408084206001600160a01b0393909316845291905290205460ff1690565b610b5b60405180608001604052805f6001600160a01b03168152602001606081526020015f81526020015f151581525090565b5f8281526005602090815260409182902082516080810190935280546001600160a01b031683526001810180549192840191610b9690612091565b80601f0160208091040260200160405190810160405280929190818152602001828054610bc290612091565b8015610c0d5780601f10610be457610100808354040283529160200191610c0d565b820191905f5260205f20905b815481529060010190602001808311610bf057829003601f168201915b50505091835250506002820154602082015260039091015460ff16151560409091015292915050565b5f82815260208190526040902060010154610c5081611656565b61082583836116ef565b5f610c6481611656565b5f8581526004602052604090206003600782015460ff166004811115610c8c57610c8c611c28565b14610cca5760405162461bcd60e51b815260206004820152600e60248201526d139bdd0818da185b1b195b99d95960921b604482015260640161055f565b5f868152600560205260409020600381015460ff1615610d1f5760405162461bcd60e51b815260206004820152601060248201526f105b1c9958591e481c995cdbdb1d995960821b604482015260640161055f565b60038101805460ff191660011790558515610d485760078201805460ff19166004179055610d6a565b60078201805460ff19166001179055610d6462015180426120dd565b60068301555b867fa2dc4181b8a50929e0d5f307603a68f636816a5ff261486002bf85f8baaea5ad878787604051610d9e93929190612118565b60405180910390a250505050505050565b60056020525f9081526040902080546001820180546001600160a01b039092169291610dda90612091565b80601f0160208091040260200160405190810160405280929190818152602001828054610e0690612091565b8015610e515780601f10610e2857610100808354040283529160200191610e51565b820191905f5260205f20905b815481529060010190602001808311610e3457829003601f168201915b50505050600283015460039093015491929160ff16905084565b5f610e7581611656565b610e8c5f805160206122e183398151915283610b00565b610ec55760405162461bcd60e51b815260206004820152600a6024820152694e6f74206f7261636c6560b01b604482015260640161055f565b610edc5f805160206122e1833981519152836116ef565b505f5b600754811015610fdd57826001600160a01b031660078281548110610f0657610f06612133565b5f918252602090912001546001600160a01b031603610fcb5760078054610f2f90600190612147565b81548110610f3f57610f3f612133565b5f91825260209091200154600780546001600160a01b039092169183908110610f6a57610f6a612133565b905f5260205f20015f6101000a8154816001600160a01b0302191690836001600160a01b031602179055506007805480610fa657610fa661215a565b5f8281526020902081015f1990810180546001600160a01b0319169055019055610fdd565b80610fd58161216e565b915050610edf565b506040516001600160a01b038316907f69c51e6934c7e0a7856e09a188ca387c2117bbe5c65c85321ae46452e11497f8905f90a25050565b5f61101e611536565b5f831161106d5760405162461bcd60e51b815260206004820152601760248201527f416d6f756e74206d75737420626520706f736974697665000000000000000000604482015260640161055f565b816110af5760405162461bcd60e51b8152602060048201526012602482015271092dcecc2d8d2c840e0e4dedecc40d0c2e6d60731b604482015260640161055f565b600254604051632820036560e11b8152600481018690525f916001600160a01b03169063504006ca9060240161018060405180830381865afa1580156110f7573d5f803e3d5ffd5b505050506040513d601f19601f8201168201806040525081019061111b9190611fdc565b90506001816101200151600681111561113657611136611c28565b148061115857506002816101200151600681111561115657611156611c28565b145b6111a45760405162461bcd60e51b815260206004820152601760248201527f4c6f616e206e6f74206163746976652f6f766572647565000000000000000000604482015260640161055f565b5f60035f81546111b39061216e565b9190508190559050604051806101000160405280878152602001868152602001858152602001336001600160a01b031681526020014281526020015f81526020015f81526020015f600481111561120c5761120c611c28565b90525f82815260046020818152604092839020845181559084015160018083019190915592840151600282015560608401516003820180546001600160a01b0319166001600160a01b0390921691909117905560808401518183015560a0840151600582015560c0840151600682015560e084015160078201805492949193909260ff1916919084908111156112a4576112a4611c28565b02179055505060408051878152602081018790523381830152905188925083917f0a962efcae8677a3c4e12acc631f19957b245d873c1b23cf57aa79b6d3fb3838919081900360600190a36113065f805160206122e183398151915233610b00565b15611315576113158133611758565b9150506107fa60018055565b611329611536565b5f8381526004602052604090206001600782015460ff16600481111561135157611351611c28565b1461139e5760405162461bcd60e51b815260206004820152601760248201527f4e6f7420696e20636f6e6669726d656420737461747573000000000000000000604482015260640161055f565b806006015442106113ea5760405162461bcd60e51b815260206004820152601660248201527510da185b1b195b99d9481c195c9a5bd908195b99195960521b604482015260640161055f565b816114295760405162461bcd60e51b815260206004820152600f60248201526e1499585cdbdb881c995c5d5a5c9959608a1b604482015260640161055f565b60078101805460ff191660031790556040805160808101825233815281516020601f86018190048102820181019093528481529091808301919086908690819084018382808284375f92018290525093855250504260208085019190915260409384018390528883526005815292909120835181546001600160a01b0319166001600160a01b03909116178155918301516001830191506114ca90826121d3565b5060408281015160028301556060909201516003909101805460ff191691151591909117905551339085907f76ed6a7c667370ba3e9eeae7e67a49991cc6c69148cda0bae053b08f4611d1a490611524908790879061228f565b60405180910390a35061090660018055565b60026001540361155957604051633ee5aeb560e01b815260040160405180910390fd5b6002600155565b6040516001600160a01b0384811660248301528381166044830152606482018390526108259186918216906323b872dd906084015b604051602081830303815290604052915060e01b6020820180516001600160e01b038381831617835250505050611912565b604080516001600160a01b038416602482015260448082018490528251808303909101815260649091019091526020810180516001600160e01b031663095ea7b360e01b1790526116188482611973565b610825576040516001600160a01b0384811660248301525f604483015261164c91869182169063095ea7b390606401611595565b6108258482611912565b6107358133611a14565b5f61166b8383610b00565b6116e8575f838152602081815260408083206001600160a01b03861684529091529020805460ff191660011790556116a03390565b6001600160a01b0316826001600160a01b0316847f2f8788117e7eff1d82e926ec794901d17c78024a50270940304540a733656f0d60405160405180910390a45060016104f0565b505f6104f0565b5f6116fa8383610b00565b156116e8575f838152602081815260408083206001600160a01b0386168085529252808320805460ff1916905551339286917ff6391f5c32d9c69d2a47ea670b442974b53935d1edc7fd64eb21e047a839171b9190a45060016104f0565b5f82815260046020526040812090600782015460ff16600481111561177f5761177f611c28565b146117ba5760405162461bcd60e51b815260206004820152600b60248201526a4e6f742070656e64696e6760a81b604482015260640161055f565b5f8381526006602090815260408083206001600160a01b038616845290915290205460ff16156118205760405162461bcd60e51b8152602060048201526011602482015270105b1c9958591e4818dbdb999a5c9b5959607a1b604482015260640161055f565b5f8381526006602090815260408083206001600160a01b03861684529091528120805460ff191660011790556005820180549161185c8361216e565b9190505550816001600160a01b0316837fc7b752a9d8dd928ce38354c9c5651782cbec84a0c21bd7f8874a05eb3122082983600501546040516118a191815260200190565b60405180910390a360028160050154106109065760078101805460ff191660011790556118d162015180426120dd565b6006820181905560405190815283907fa6cd4efc90c0a3ab511cec2cb61d576042075363191cfc6afa05565bb2de2c499060200160405180910390a2505050565b5f6119266001600160a01b03841683611a4d565b905080515f1415801561194a57508080602001905181019061194891906122aa565b155b1561090657604051635274afe760e01b81526001600160a01b038416600482015260240161055f565b5f805f846001600160a01b03168460405161198e91906122c5565b5f604051808303815f865af19150503d805f81146119c7576040519150601f19603f3d011682016040523d82523d5f602084013e6119cc565b606091505b50915091508180156119f65750805115806119f65750808060200190518101906119f691906122aa565b8015611a0b57505f856001600160a01b03163b115b95945050505050565b611a1e8282610b00565b610afc5760405163e2517d3f60e01b81526001600160a01b03821660048201526024810183905260440161055f565b60606107fa83835f845f80856001600160a01b03168486604051611a7191906122c5565b5f6040518083038185875af1925050503d805f8114611aab576040519150601f19603f3d011682016040523d82523d5f602084013e611ab0565b606091505b5091509150611ac0868383611aca565b9695505050505050565b606082611adf57611ada82611b26565b6107fa565b8151158015611af657506001600160a01b0384163b155b15611b1f57604051639996b31560e01b81526001600160a01b038516600482015260240161055f565b50806107fa565b805115611b365780518082602001fd5b604051630a12f52160e11b815260040160405180910390fd5b6040518061010001604052805f81526020015f81526020015f80191681526020015f6001600160a01b031681526020015f81526020015f81526020015f81526020015f6004811115611ba357611ba3611c28565b905290565b5f60208284031215611bb8575f80fd5b81356001600160e01b0319811681146107fa575f80fd5b6001600160a01b0381168114610735575f80fd5b5f8060408385031215611bf4575f80fd5b823591506020830135611c0681611bcf565b809150509250929050565b5f60208284031215611c21575f80fd5b5035919050565b634e487b7160e01b5f52602160045260245ffd5b60058110611c5857634e487b7160e01b5f52602160045260245ffd5b9052565b5f6101008201905082518252602083015160208301526040830151604083015260018060a01b0360608401511660608301526080830151608083015260a083015160a083015260c083015160c083015260e0830151611cbe60e0840182611c3c565b5092915050565b602080825282518282018190525f9190848201906040850190845b81811015611d055783516001600160a01b031683529284019291840191600101611ce0565b50909695505050505050565b5f60208284031215611d21575f80fd5b81356107fa81611bcf565b88815260208101889052604081018790526001600160a01b03861660608201526080810185905260a0810184905260c081018390526101008101611d7360e0830184611c3c565b9998505050505050505050565b5f5b83811015611d9a578181015183820152602001611d82565b50505f910152565b5f8151808452611db9816020860160208601611d80565b601f01601f19169290920160200192915050565b602080825282516001600160a01b031682820152820151608060408301525f90611dfa60a0840182611da2565b9050604084015160608401526060840151151560808401528091505092915050565b8015158114610735575f80fd5b5f8083601f840112611e39575f80fd5b50813567ffffffffffffffff811115611e50575f80fd5b602083019150836020828501011115611e67575f80fd5b9250929050565b5f805f8060608587031215611e81575f80fd5b843593506020850135611e9381611e1c565b9250604085013567ffffffffffffffff811115611eae575f80fd5b611eba87828801611e29565b95989497509550505050565b6001600160a01b03851681526080602082018190525f90611ee990830186611da2565b60408301949094525090151560609091015292915050565b5f805f60608486031215611f13575f80fd5b505081359360208301359350604090920135919050565b5f805f60408486031215611f3c575f80fd5b83359250602084013567ffffffffffffffff811115611f59575f80fd5b611f6586828701611e29565b9497909650939450505050565b634e487b7160e01b5f52604160045260245ffd5b604051610180810167ffffffffffffffff81118282101715611faa57611faa611f72565b60405290565b8051611fbb81611bcf565b919050565b805160078110611fbb575f80fd5b805160048110611fbb575f80fd5b5f6101808284031215611fed575f80fd5b611ff5611f86565b8251815261200560208401611fb0565b602082015261201660408401611fb0565b6040820152606083015160608201526080830151608082015260a083015160a082015260c083015160c082015260e083015160e0820152610100808401518183015250610120612067818501611fc0565b90820152610140612079848201611fce565b90820152610160928301519281019290925250919050565b600181811c908216806120a557607f821691505b6020821081036120c357634e487b7160e01b5f52602260045260245ffd5b50919050565b634e487b7160e01b5f52601160045260245ffd5b808201808211156104f0576104f06120c9565b81835281816020850137505f828201602090810191909152601f909101601f19169091010190565b8315158152604060208201525f611a0b6040830184866120f0565b634e487b7160e01b5f52603260045260245ffd5b818103818111156104f0576104f06120c9565b634e487b7160e01b5f52603160045260245ffd5b5f6001820161217f5761217f6120c9565b5060010190565b601f821115610906575f81815260208120601f850160051c810160208610156121ac5750805b601f850160051c820191505b818110156121cb578281556001016121b8565b505050505050565b815167ffffffffffffffff8111156121ed576121ed611f72565b612201816121fb8454612091565b84612186565b602080601f831160018114612234575f841561221d5750858301515b5f19600386901b1c1916600185901b1785556121cb565b5f85815260208120601f198616915b8281101561226257888601518255948401946001909101908401612243565b508582101561227f57878501515f19600388901b60f8161c191681555b5050505050600190811b01905550565b602081525f6122a26020830184866120f0565b949350505050565b5f602082840312156122ba575f80fd5b81516107fa81611e1c565b5f82516122d6818460208701611d80565b919091019291505056fea5c18f1aab88856d934e404acfd20d319e4e8e6b386460449d50ce843e21df22a26469706673582212201df6d5324dc887ea49088a0589917ccb8d1537e135c0abc60a50cb3c75040f0464736f6c63430008140033",
    "linkReferences": {}
  },
  "methodIdentifiers": {
    "CHALLENGE_PERIOD()": "c3a079ed",
    "DEFAULT_ADMIN_ROLE()": "a217fddf",
    "ORACLE_NODE_ROLE()": "75561da6",
    "REQUIRED_CONFIRMATIONS()": "587d8127",
    "addOracleNode(address)": "4de457da",
    "challengePayment(uint256,string)": "fb462bd1",
    "confirmPayment(uint256)": "876ca09f",
    "confirmations(uint256,address)": "3411c81c",
    "executePayment(uint256)": "162a0cf8",
    "getOracleNodeCount()": "b71cce7d",
    "getOracleNodes()": "40fd10b3",
    "getPayment(uint256)": "3280a836",
    "getPaymentChallenge(uint256)": "94ccaa9f",
    "getRoleAdmin(bytes32)": "248a9ca3",
    "grantRole(bytes32,address)": "2f2ff15d",
    "hasConfirmed(uint256,address)": "08aff933",
    "hasRole(bytes32,address)": "91d14854",
    "isInChallengePeriod(uint256)": "26b3e9b1",
    "lendingPool()": "a59a9973",
    "oracleNodes(uint256)": "36d2e6b8",
    "paymentChallenges(uint256)": "da0d214e",
    "payments(uint256)": "87d81789",
    "removeOracleNode(address)": "dd4c1b8d",
    "renounceRole(bytes32,address)": "36568abe",
    "resolvePaymentChallenge(uint256,bool,string)": "d914e83d",
    "revokeRole(bytes32,address)": "d547741f",
    "submitPayment(uint256,uint256,bytes32)": "f8baaaa4",
    "supportsInterface(bytes4)": "01ffc9a7"
  },
  "id": 65
}